{
  "contractName": "Allowances",
  "abi": [
    {
      "anonymous": false,
      "inputs": [
        {
          "indexed": true,
          "internalType": "address",
          "name": "account",
          "type": "address"
        },
        {
          "indexed": false,
          "internalType": "uint256",
          "name": "allowance",
          "type": "uint256"
        }
      ],
      "name": "Added",
      "type": "event"
    },
    {
      "anonymous": false,
      "inputs": [
        {
          "indexed": true,
          "internalType": "address",
          "name": "previousOwner",
          "type": "address"
        },
        {
          "indexed": true,
          "internalType": "address",
          "name": "newOwner",
          "type": "address"
        }
      ],
      "name": "OwnershipTransferred",
      "type": "event"
    },
    {
      "anonymous": false,
      "inputs": [
        {
          "indexed": false,
          "internalType": "address",
          "name": "account",
          "type": "address"
        }
      ],
      "name": "Paused",
      "type": "event"
    },
    {
      "anonymous": false,
      "inputs": [
        {
          "indexed": true,
          "internalType": "address",
          "name": "beneficiary",
          "type": "address"
        },
        {
          "indexed": false,
          "internalType": "uint256",
          "name": "amount",
          "type": "uint256"
        },
        {
          "indexed": false,
          "internalType": "uint256",
          "name": "gasprice",
          "type": "uint256"
        }
      ],
      "name": "Removed",
      "type": "event"
    },
    {
      "anonymous": false,
      "inputs": [
        {
          "indexed": false,
          "internalType": "address",
          "name": "account",
          "type": "address"
        }
      ],
      "name": "Unpaused",
      "type": "event"
    },
    {
      "inputs": [
        {
          "internalType": "address",
          "name": "",
          "type": "address"
        }
      ],
      "name": "addressToAllowance",
      "outputs": [
        {
          "internalType": "uint256",
          "name": "value",
          "type": "uint256"
        },
        {
          "internalType": "uint256",
          "name": "added",
          "type": "uint256"
        },
        {
          "internalType": "uint256",
          "name": "removed",
          "type": "uint256"
        }
      ],
      "stateMutability": "view",
      "type": "function",
      "constant": true
    },
    {
      "inputs": [],
      "name": "bot",
      "outputs": [
        {
          "internalType": "address",
          "name": "",
          "type": "address"
        }
      ],
      "stateMutability": "view",
      "type": "function",
      "constant": true
    },
    {
      "inputs": [],
      "name": "owner",
      "outputs": [
        {
          "internalType": "address",
          "name": "",
          "type": "address"
        }
      ],
      "stateMutability": "view",
      "type": "function",
      "constant": true
    },
    {
      "inputs": [],
      "name": "paused",
      "outputs": [
        {
          "internalType": "bool",
          "name": "",
          "type": "bool"
        }
      ],
      "stateMutability": "view",
      "type": "function",
      "constant": true
    },
    {
      "inputs": [],
      "name": "renounceOwnership",
      "outputs": [],
      "stateMutability": "nonpayable",
      "type": "function"
    },
    {
      "inputs": [
        {
          "internalType": "address",
          "name": "",
          "type": "address"
        }
      ],
      "name": "stakerIdx",
      "outputs": [
        {
          "internalType": "uint256",
          "name": "",
          "type": "uint256"
        }
      ],
      "stateMutability": "view",
      "type": "function",
      "constant": true
    },
    {
      "inputs": [
        {
          "internalType": "uint256",
          "name": "",
          "type": "uint256"
        }
      ],
      "name": "stakers",
      "outputs": [
        {
          "internalType": "address",
          "name": "",
          "type": "address"
        }
      ],
      "stateMutability": "view",
      "type": "function",
      "constant": true
    },
    {
      "inputs": [
        {
          "internalType": "address",
          "name": "newOwner",
          "type": "address"
        }
      ],
      "name": "transferOwnership",
      "outputs": [],
      "stateMutability": "nonpayable",
      "type": "function"
    },
    {
      "stateMutability": "payable",
      "type": "receive",
      "payable": true
    },
    {
      "inputs": [
        {
          "components": [
            {
              "internalType": "address",
              "name": "player",
              "type": "address"
            },
            {
              "internalType": "uint256",
              "name": "value",
              "type": "uint256"
            }
          ],
          "internalType": "struct Allowances.AllowanceParams[]",
          "name": "_allowanceParams",
          "type": "tuple[]"
        }
      ],
      "name": "distribute",
      "outputs": [],
      "stateMutability": "nonpayable",
      "type": "function"
    },
    {
      "inputs": [],
      "name": "withdraw",
      "outputs": [],
      "stateMutability": "nonpayable",
      "type": "function"
    },
    {
      "inputs": [],
      "name": "fullWithdrawal",
      "outputs": [],
      "stateMutability": "nonpayable",
      "type": "function"
    },
    {
      "inputs": [
        {
          "internalType": "address",
          "name": "_player",
          "type": "address"
        }
      ],
      "name": "ownerWithdraw",
      "outputs": [],
      "stateMutability": "nonpayable",
      "type": "function"
    },
    {
      "inputs": [
        {
          "internalType": "address",
          "name": "_bot",
          "type": "address"
        }
      ],
      "name": "setBot",
      "outputs": [],
      "stateMutability": "nonpayable",
      "type": "function"
    },
    {
      "inputs": [],
      "name": "getStakersLength",
      "outputs": [
        {
          "internalType": "uint256",
          "name": "",
          "type": "uint256"
        }
      ],
      "stateMutability": "view",
      "type": "function",
      "constant": true
    },
    {
      "inputs": [
        {
          "internalType": "address",
          "name": "tokenAddress",
          "type": "address"
        },
        {
          "internalType": "uint256",
          "name": "tokens",
          "type": "uint256"
        }
      ],
      "name": "transferAnyERC20Token",
      "outputs": [
        {
          "internalType": "bool",
          "name": "success",
          "type": "bool"
        }
      ],
      "stateMutability": "nonpayable",
      "type": "function"
    },
    {
      "inputs": [],
      "name": "pause",
      "outputs": [],
      "stateMutability": "nonpayable",
      "type": "function"
    },
    {
      "inputs": [],
      "name": "unpause",
      "outputs": [],
      "stateMutability": "nonpayable",
      "type": "function"
    }
  ],
  "bytecode": "0x608060405234801561001057600080fd5b506000610024640100000000610083810204565b60008054600160a060020a031916600160a060020a0383169081178255604051929350917f8be0079c531659141344cd1fd0a4f28419497f9722a3daafe3b4186f6b6457e0908290a3506000805460a060020a60ff0219169055610087565b3390565b61128c806100966000396000f3fe60806040526004361061011f576000357c010000000000000000000000000000000000000000000000000000000090048063715018a6116100b2578063a0c1268311610081578063a0c12683146102d6578063dc39d06d14610303578063f2fde38b14610323578063f9bfaa7d14610343578063fd5e6dd11461036357610126565b8063715018a61461026f5780638456cb59146102845780638da5cb5b146102995780639fabeb00146102b757610126565b80633ccfd60b116100ee5780633ccfd60b146101f55780633f4ba83a1461020a5780635c975abb1461021f5780636b5caec41461024f57610126565b80630d32c3761461012b57806310814c37146101865780631c378573146101be57806335343c2d146101e057610126565b3661012657005b600080fd5b34801561013757600080fd5b50610166610146366004610f80565b600160208190526000918252604090912080549181015460029091015483565b604080519384526020840192909252908201526060015b60405180910390f35b34801561019257600080fd5b506004546101a690600160a060020a031681565b604051600160a060020a03909116815260200161017d565b3480156101ca57600080fd5b506101de6101d9366004610fc3565b610383565b005b3480156101ec57600080fd5b506101de610672565b34801561020157600080fd5b506101de61074a565b34801561021657600080fd5b506101de6107c5565b34801561022b57600080fd5b5061023f60005460a060020a900460ff1690565b604051901515815260200161017d565b34801561025b57600080fd5b506101de61026a366004610f80565b610850565b34801561027b57600080fd5b506101de6108be565b34801561029057600080fd5b506101de610942565b3480156102a557600080fd5b50600054600160a060020a03166101a6565b3480156102c357600080fd5b506002545b60405190815260200161017d565b3480156102e257600080fd5b506102c86102f1366004610f80565b60036020526000908152604090205481565b34801561030f57600080fd5b5061023f61031e366004610f9a565b6109ce565b34801561032f57600080fd5b506101de61033e366004610f80565b610abb565b34801561034f57600080fd5b506101de61035e366004610f80565b610bcf565b34801561036f57600080fd5b506101a661037e3660046110b7565b610cc5565b33610396600054600160a060020a031690565b600160a060020a031614806103b55750600454600160a060020a031633145b6103dd5760405160e560020a62461bcd0281526004016103d490611172565b60405180910390fd5b8051600080805b8381101561066b5784818151811061040f5760e060020a634e487b7102600052603260045260246000fd5b60200260200101516000015192508481815181106104405760e060020a634e487b7102600052603260045260246000fd5b60200260200101516020015191506001600084600160a060020a0316600160a060020a03168152602001908152602001600020600001546000141561058b57600280546001808201835560008390527f405787fa12a823e0f2b7631cc41b3ba8828b3321ca811111fa75cd3aa3bb5ace909101805473ffffffffffffffffffffffffffffffffffffffff1916600160a060020a03871617905590546104e591906111f2565b6003600085600160a060020a0316600160a060020a0316815260200190815260200160002081905550604051806060016040528086838151811061053c5760e060020a634e487b7102600052603260045260246000fd5b6020908102919091018101518101518252428282015260006040928301819052600160a060020a0387168152600180835290839020845181559184015190820155910151600290910155610616565b8481815181106105ae5760e060020a634e487b7102600052603260045260246000fd5b6020026020010151602001516001600085600160a060020a0316600160a060020a0316815260200190815260200160002060000160008282546105f191906111da565b9091555050600160a060020a0383166000908152600160208190526040909120429101555b82600160a060020a03167f446e00ad56f9b887844f390c87a128507b991ea0499375f13ecb115288c2df7d8360405161065191815260200190565b60405180910390a28061066381611209565b9150506103e4565b5050505050565b600054600160a060020a0316331461069f5760405160e560020a62461bcd0281526004016103d49061113d565b6106b260005460a060020a900460ff1690565b6106d15760405160e560020a62461bcd0281526004016103d4906110cf565b3031806106de5750610748565b604051339082156108fc029083906000818181858888f1935050505015801561070b573d6000803e3d6000fd5b50604080518281523a602082015233917fe3d0f1a4676b30f6f1603009186ab4512118de422f073c944d533e06345b5a58910160405180910390a2505b565b61075d60005460a060020a900460ff1690565b1561077d5760405160e560020a62461bcd0281526004016103d490611106565b33600090815260016020526040902054806107985750610748565b3360009081526001602090815260408083208381554260029091015560039091529020546106de90610cef565b336107d8600054600160a060020a031690565b600160a060020a031614806107f75750600454600160a060020a031633145b6108165760405160e560020a62461bcd0281526004016103d490611172565b61082960005460a060020a900460ff1690565b6108485760405160e560020a62461bcd0281526004016103d4906110cf565b610748610e55565b600054600160a060020a0316331461087d5760405160e560020a62461bcd0281526004016103d49061113d565b600454600160a060020a038281169116146108bb576004805473ffffffffffffffffffffffffffffffffffffffff1916600160a060020a0383161790555b50565b600054600160a060020a031633146108eb5760405160e560020a62461bcd0281526004016103d49061113d565b60008054604051600160a060020a03909116907f8be0079c531659141344cd1fd0a4f28419497f9722a3daafe3b4186f6b6457e0908390a36000805473ffffffffffffffffffffffffffffffffffffffff19169055565b33610955600054600160a060020a031690565b600160a060020a031614806109745750600454600160a060020a031633145b6109935760405160e560020a62461bcd0281526004016103d490611172565b6109a660005460a060020a900460ff1690565b156109c65760405160e560020a62461bcd0281526004016103d490611106565b610748610ee5565b60008054600160a060020a031633146109fc5760405160e560020a62461bcd0281526004016103d49061113d565b82600160a060020a031663a9059cbb610a1d600054600160a060020a031690565b6040517c010000000000000000000000000000000000000000000000000000000063ffffffff8416028152600160a060020a03909116600482015260248101859052604401602060405180830381600087803b158015610a7c57600080fd5b505af1158015610a90573d6000803e3d6000fd5b505050506040513d601f19601f82011682018060405250810190610ab49190611097565b9392505050565b600054600160a060020a03163314610ae85760405160e560020a62461bcd0281526004016103d49061113d565b600160a060020a038116610b675760405160e560020a62461bcd02815260206004820152602660248201527f4f776e61626c653a206e6577206f776e657220697320746865207a65726f206160448201527f646472657373000000000000000000000000000000000000000000000000000060648201526084016103d4565b60008054604051600160a060020a03808516939216917f8be0079c531659141344cd1fd0a4f28419497f9722a3daafe3b4186f6b6457e091a36000805473ffffffffffffffffffffffffffffffffffffffff1916600160a060020a0392909216919091179055565b600054600160a060020a03163314610bfc5760405160e560020a62461bcd0281526004016103d49061113d565b600160a060020a03811660009081526001602052604090205480610c2057506108bb565b600160a060020a0382166000908152600160209081526040808320838155426002909101553383526003909152902054610c5990610cef565b604051339082156108fc029083906000818181858888f19350505050158015610c86573d6000803e3d6000fd5b50604080518281523a602082015233917fe3d0f1a4676b30f6f1603009186ab4512118de422f073c944d533e06345b5a58910160405180910390a25050565b60028181548110610cd557600080fd5b600091825260209091200154600160a060020a0316905081565b60025460011180610d0d5750600254610d0a906001906111f2565b81115b15610d17576108bb565b60028054610d27906001906111f2565b81548110610d485760e060020a634e487b7102600052603260045260246000fd5b60009182526020909120015460028054600160a060020a039092169183908110610d855760e060020a634e487b7102600052603260045260246000fd5b9060005260206000200160006101000a815481600160a060020a030219169083600160a060020a03160217905550806003600060028481548110610ddc5760e060020a634e487b7102600052603260045260246000fd5b6000918252602080832090910154600160a060020a031683528201929092526040019020556002805480610e235760e060020a634e487b7102600052603160045260246000fd5b6000828152602090208101600019908101805473ffffffffffffffffffffffffffffffffffffffff1916905501905550565b610e6860005460a060020a900460ff1690565b610e875760405160e560020a62461bcd0281526004016103d4906110cf565b6000805474ff0000000000000000000000000000000000000000191690557f5db9ee0a495bf2e6ff9c91a7834c1ba4fdd244a5e8aa4e537bd38aeae4b073aa335b604051600160a060020a03909116815260200160405180910390a1565b610ef860005460a060020a900460ff1690565b15610f185760405160e560020a62461bcd0281526004016103d490611106565b6000805474ff0000000000000000000000000000000000000000191660a060020a1790557f62e78cea01bee320cd4e420270b5ea74000d11b0c9f74754ebdbfc544b05a258610ec83390565b8035600160a060020a0381168114610f7b57600080fd5b919050565b600060208284031215610f91578081fd5b610ab482610f64565b60008060408385031215610fac578081fd5b610fb583610f64565b946020939093013593505050565b60006020808385031215610fd5578182fd5b823567ffffffffffffffff80821115610fec578384fd5b818501915085601f830112610fff578384fd5b8135818111156110115761101161123d565b61101e84858302016111a9565b81815284810192508385016040808402860187018a101561103d578788fd5b8795505b838610156110895780828b031215611057578788fd5b611060816111a9565b61106983610f64565b815282880135888201528552600195909501949386019390810190611041565b509098975050505050505050565b6000602082840312156110a8578081fd5b81518015158114610ab4578182fd5b6000602082840312156110c8578081fd5b5035919050565b60208082526014908201527f5061757361626c653a206e6f7420706175736564000000000000000000000000604082015260600190565b60208082526010908201527f5061757361626c653a2070617573656400000000000000000000000000000000604082015260600190565b6020808252818101527f4f776e61626c653a2063616c6c6572206973206e6f7420746865206f776e6572604082015260600190565b6020808252601f908201527f43616c6c6572206973206e656974686572206f776e6572206e6f7220626f7400604082015260600190565b604051601f8201601f1916810167ffffffffffffffff811182821017156111d2576111d261123d565b604052919050565b600082198211156111ed576111ed611224565b500190565b60008282101561120457611204611224565b500390565b600060001982141561121d5761121d611224565b5060010190565b60e060020a634e487b7102600052601160045260246000fd5b60e060020a634e487b7102600052604160045260246000fdfea264697066735822122043c4201abdfd379ed883ea97082c245e2b6d363c37e45e937dd43ebbf55b8b3364736f6c63430008030033",
  "immutableReferences": {},
  "source": "// SPDX-License-Identifier: Copyright\npragma solidity ^0.8.0;\n\nimport '@openzeppelin/contracts/access/Ownable.sol';\nimport '@openzeppelin/contracts/security/Pausable.sol';\nimport '@openzeppelin/contracts/token/ERC20/IERC20.sol';\n\ncontract Allowances is Ownable, Pausable {\n\n  struct Allowance {\n    uint value;\n    uint added;\n    uint removed;\n  }\n\n  struct AllowanceParams {\n    address player;\n    uint value;\n  }\n\n  // to get all addresses look as scores list\n  mapping (address => Allowance) public addressToAllowance;\n\n  address[] public stakers;\n  mapping(address => uint) public stakerIdx;\n\n  address public bot;\n\n  // MODIFIERS\n  modifier onlyOwnerOrBot() {\n    require(owner() == msg.sender || bot == msg.sender, \"Caller is neither owner nor bot\");\n    _;\n  }\n\n  // EVENTS\n  event Removed(address indexed beneficiary, uint256 amount, uint256 gasprice);\n  event Added(address indexed account, uint256 allowance);\n\n  receive() external payable {}\n\n  function distribute(\n    AllowanceParams[] memory _allowanceParams\n  ) public onlyOwnerOrBot {\n    uint allowanceParamsLen = _allowanceParams.length;\n    address player;\n    uint value;\n\n    for(uint i = 0; i < allowanceParamsLen; i++) {\n      player = _allowanceParams[i].player;\n      value = _allowanceParams[i].value;\n\n      if(addressToAllowance[player].value == 0) {\n        stakers.push(player);\n        stakerIdx[player] = stakers.length - 1;\n\n        addressToAllowance[player] = Allowance({\n          value: _allowanceParams[i].value,\n          added: block.timestamp,\n          removed: 0\n        });\n      } else {\n        // add allowance\n        addressToAllowance[player].value += _allowanceParams[i].value;\n        addressToAllowance[player].added = block.timestamp;\n      }\n\n      emit Added(player, value);\n    }\n  }\n\n  // *** WITHDRAW\n  function withdraw() public whenNotPaused {\n\n    uint amount = addressToAllowance[msg.sender].value;\n    if(amount == 0) {\n      return;\n    }\n\n    addressToAllowance[msg.sender].value = 0;\n    addressToAllowance[msg.sender].removed = block.timestamp;\n\n    removeStaker(stakerIdx[msg.sender]);\n    payable(msg.sender).transfer(amount);\n\n    emit Removed(msg.sender, amount, tx.gasprice);\n  }\n\n  function fullWithdrawal() public onlyOwner whenPaused {\n    // don't update allowance to be able to transfer the data on contract update\n    uint amount = address(this).balance;\n    if(amount == 0) {\n      return;\n    }\n    payable(msg.sender).transfer(amount);\n    emit Removed(msg.sender, amount, tx.gasprice);\n  }\n\n  function ownerWithdraw(address _player) public onlyOwner {\n\n    uint amount = addressToAllowance[_player].value;\n    if(amount == 0) {\n      return;\n    }\n\n    addressToAllowance[_player].value = 0;\n    addressToAllowance[_player].removed = block.timestamp;\n    removeStaker(stakerIdx[msg.sender]);\n\n    payable(msg.sender).transfer(amount);\n\n    emit Removed(msg.sender, amount, tx.gasprice);\n  }\n\n  // Deleting an element creates a gap in the array.\n  // One trick to keep the array compact is to\n  // move the last element into the place to delete.\n  function removeStaker(uint index) internal {\n    if(stakers.length < 1 || index > stakers.length -1) {\n      return;\n    }\n\n    // Move the last element into the place to delete\n    stakers[index] = stakers[stakers.length - 1];\n\n    // update the index\n    stakerIdx[stakers[index]] = index;\n\n    // Remove the last element\n    stakers.pop();\n  }\n\n  function setBot(address _bot) external onlyOwner {\n    if(bot != _bot) {\n      bot = _bot;\n    }\n  }\n\n  function getStakersLength() public view returns(uint) {\n    return stakers.length;\n  }\n\n  // ------------------------------------------------------------------------\n  // Owner can transfer out any accidentally sent ERC20 tokens\n  // ------------------------------------------------------------------------\n  function transferAnyERC20Token(address tokenAddress, uint tokens) public onlyOwner returns (bool success) {\n    return IERC20(tokenAddress).transfer(owner(), tokens);\n  }\n\n  function pause() external onlyOwnerOrBot whenNotPaused {\n    _pause();\n  }\n\n  function unpause() external onlyOwnerOrBot whenPaused {\n    _unpause();\n  }\n\n}\n",
  "sourcePath": "/home/user/code/foxreymann/defi-demo/src/contracts/Allowances.sol",
  "compiler": {
    "name": "solc",
    "version": "0.8.3+commit.8d00100c.Emscripten.clang"
  },
  "schemaVersion": "3.2.4",
  "updatedAt": "2021-04-30T19:22:14.746Z",
  "networkType": "ethereum",
  "devdoc": {
    "kind": "dev",
    "methods": {
      "owner()": {
        "details": "Returns the address of the current owner."
      },
      "paused()": {
        "details": "Returns true if the contract is paused, and false otherwise."
      },
      "renounceOwnership()": {
        "details": "Leaves the contract without owner. It will not be possible to call `onlyOwner` functions anymore. Can only be called by the current owner. NOTE: Renouncing ownership will leave the contract without an owner, thereby removing any functionality that is only available to the owner."
      },
      "transferOwnership(address)": {
        "details": "Transfers ownership of the contract to a new account (`newOwner`). Can only be called by the current owner."
      }
    },
    "version": 1
  },
  "userdoc": {
    "kind": "user",
    "methods": {},
    "version": 1
  }
}