{
  "contractName": "Allowances",
  "abi": [
    {
      "anonymous": false,
      "inputs": [
        {
          "indexed": true,
          "internalType": "address",
          "name": "account",
          "type": "address"
        },
        {
          "indexed": false,
          "internalType": "uint256",
          "name": "allowance",
          "type": "uint256"
        }
      ],
      "name": "Added",
      "type": "event"
    },
    {
      "anonymous": false,
      "inputs": [
        {
          "indexed": true,
          "internalType": "address",
          "name": "previousOwner",
          "type": "address"
        },
        {
          "indexed": true,
          "internalType": "address",
          "name": "newOwner",
          "type": "address"
        }
      ],
      "name": "OwnershipTransferred",
      "type": "event"
    },
    {
      "anonymous": false,
      "inputs": [
        {
          "indexed": false,
          "internalType": "address",
          "name": "account",
          "type": "address"
        }
      ],
      "name": "Paused",
      "type": "event"
    },
    {
      "anonymous": false,
      "inputs": [
        {
          "indexed": true,
          "internalType": "address",
          "name": "beneficiary",
          "type": "address"
        },
        {
          "indexed": false,
          "internalType": "uint256",
          "name": "amount",
          "type": "uint256"
        },
        {
          "indexed": false,
          "internalType": "uint256",
          "name": "gasprice",
          "type": "uint256"
        }
      ],
      "name": "Removed",
      "type": "event"
    },
    {
      "anonymous": false,
      "inputs": [
        {
          "indexed": false,
          "internalType": "address",
          "name": "account",
          "type": "address"
        }
      ],
      "name": "Unpaused",
      "type": "event"
    },
    {
      "inputs": [
        {
          "internalType": "address",
          "name": "",
          "type": "address"
        }
      ],
      "name": "addressToAllowance",
      "outputs": [
        {
          "internalType": "uint256",
          "name": "value",
          "type": "uint256"
        },
        {
          "internalType": "uint256",
          "name": "added",
          "type": "uint256"
        },
        {
          "internalType": "uint256",
          "name": "removed",
          "type": "uint256"
        }
      ],
      "stateMutability": "view",
      "type": "function"
    },
    {
      "inputs": [],
      "name": "bot",
      "outputs": [
        {
          "internalType": "address",
          "name": "",
          "type": "address"
        }
      ],
      "stateMutability": "view",
      "type": "function"
    },
    {
      "inputs": [],
      "name": "owner",
      "outputs": [
        {
          "internalType": "address",
          "name": "",
          "type": "address"
        }
      ],
      "stateMutability": "view",
      "type": "function"
    },
    {
      "inputs": [],
      "name": "paused",
      "outputs": [
        {
          "internalType": "bool",
          "name": "",
          "type": "bool"
        }
      ],
      "stateMutability": "view",
      "type": "function"
    },
    {
      "inputs": [],
      "name": "renounceOwnership",
      "outputs": [],
      "stateMutability": "nonpayable",
      "type": "function"
    },
    {
      "inputs": [
        {
          "internalType": "address",
          "name": "",
          "type": "address"
        }
      ],
      "name": "stakerIdx",
      "outputs": [
        {
          "internalType": "uint256",
          "name": "",
          "type": "uint256"
        }
      ],
      "stateMutability": "view",
      "type": "function"
    },
    {
      "inputs": [
        {
          "internalType": "uint256",
          "name": "",
          "type": "uint256"
        }
      ],
      "name": "stakers",
      "outputs": [
        {
          "internalType": "address",
          "name": "",
          "type": "address"
        }
      ],
      "stateMutability": "view",
      "type": "function"
    },
    {
      "inputs": [
        {
          "internalType": "address",
          "name": "newOwner",
          "type": "address"
        }
      ],
      "name": "transferOwnership",
      "outputs": [],
      "stateMutability": "nonpayable",
      "type": "function"
    },
    {
      "stateMutability": "payable",
      "type": "receive"
    },
    {
      "inputs": [
        {
          "components": [
            {
              "internalType": "address",
              "name": "player",
              "type": "address"
            },
            {
              "internalType": "uint256",
              "name": "value",
              "type": "uint256"
            }
          ],
          "internalType": "struct Allowances.AllowanceParams[]",
          "name": "_allowanceParams",
          "type": "tuple[]"
        }
      ],
      "name": "distribute",
      "outputs": [],
      "stateMutability": "nonpayable",
      "type": "function"
    },
    {
      "inputs": [],
      "name": "withdraw",
      "outputs": [],
      "stateMutability": "nonpayable",
      "type": "function"
    },
    {
      "inputs": [],
      "name": "fullWithdrawal",
      "outputs": [],
      "stateMutability": "nonpayable",
      "type": "function"
    },
    {
      "inputs": [
        {
          "internalType": "address",
          "name": "_player",
          "type": "address"
        }
      ],
      "name": "ownerWithdraw",
      "outputs": [],
      "stateMutability": "nonpayable",
      "type": "function"
    },
    {
      "inputs": [
        {
          "internalType": "address",
          "name": "_bot",
          "type": "address"
        }
      ],
      "name": "setBot",
      "outputs": [],
      "stateMutability": "nonpayable",
      "type": "function"
    },
    {
      "inputs": [
        {
          "internalType": "address",
          "name": "tokenAddress",
          "type": "address"
        },
        {
          "internalType": "uint256",
          "name": "tokens",
          "type": "uint256"
        }
      ],
      "name": "transferAnyERC20Token",
      "outputs": [
        {
          "internalType": "bool",
          "name": "success",
          "type": "bool"
        }
      ],
      "stateMutability": "nonpayable",
      "type": "function"
    }
  ],
  "bytecode": "0x608060405234801561001057600080fd5b506000610024640100000000610083810204565b60008054600160a060020a031916600160a060020a0383169081178255604051929350917f8be0079c531659141344cd1fd0a4f28419497f9722a3daafe3b4186f6b6457e0908290a3506000805460a060020a60ff0219169055610087565b3390565b610fb9806100966000396000f3fe6080604052600436106100fe576000357c010000000000000000000000000000000000000000000000000000000090048063715018a61161009c578063dc39d06d11610076578063dc39d06d146102b8578063f2fde38b146102d8578063f9bfaa7d146102f8578063fd5e6dd11461031857610105565b8063715018a61461024a5780638da5cb5b1461025f578063a0c126831461027d57610105565b806335343c2d116100d857806335343c2d146101bf5780633ccfd60b146101d45780635c975abb146101e95780636b5caec41461022a57610105565b80630d32c3761461010a57806310814c37146101655780631c3785731461019d57610105565b3661010557005b600080fd5b34801561011657600080fd5b50610145610125366004610d52565b600160208190526000918252604090912080549181015460029091015483565b604080519384526020840192909252908201526060015b60405180910390f35b34801561017157600080fd5b5060045461018590600160a060020a031681565b604051600160a060020a03909116815260200161015c565b3480156101a957600080fd5b506101bd6101b8366004610d95565b610338565b005b3480156101cb57600080fd5b506101bd6105e8565b3480156101e057600080fd5b506101bd610701565b3480156101f557600080fd5b5061021a60005474010000000000000000000000000000000000000000900460ff1690565b604051901515815260200161015c565b34801561023657600080fd5b506101bd610245366004610d52565b6107bd565b34801561025657600080fd5b506101bd61082b565b34801561026b57600080fd5b50600054600160a060020a0316610185565b34801561028957600080fd5b506102aa610298366004610d52565b60036020526000908152604090205481565b60405190815260200161015c565b3480156102c457600080fd5b5061021a6102d3366004610d6c565b6108af565b3480156102e457600080fd5b506101bd6102f3366004610d52565b61099c565b34801561030457600080fd5b506101bd610313366004610d52565b610ab0565b34801561032457600080fd5b50610185610333366004610e89565b610ba6565b3361034b600054600160a060020a031690565b600160a060020a0316148061036a5750600454600160a060020a031633145b6103be5760405160e560020a62461bcd02815260206004820152601f60248201527f43616c6c6572206973206e656974686572206f776e6572206e6f7220626f740060448201526064015b60405180910390fd5b8051600080805b838110156105e1578481815181106103f05760e060020a634e487b7102600052603260045260246000fd5b60200260200101516000015192508481815181106104215760e060020a634e487b7102600052603260045260246000fd5b6020026020010151602001519150816000141561054457600280546001808201835560008390527f405787fa12a823e0f2b7631cc41b3ba8828b3321ca811111fa75cd3aa3bb5ace909101805473ffffffffffffffffffffffffffffffffffffffff1916600160a060020a038716179055905461049e9190610f1f565b6003600085600160a060020a0316600160a060020a031681526020019081526020016000208190555060405180606001604052808683815181106104f55760e060020a634e487b7102600052603260045260246000fd5b6020908102919091018101518101518252428282015260006040928301819052600160a060020a03871681526001808352908390208451815591840151908201559101516002909101556105cf565b8481815181106105675760e060020a634e487b7102600052603260045260246000fd5b6020026020010151602001516001600085600160a060020a0316600160a060020a0316815260200190815260200160002060000160008282546105aa9190610f07565b9091555050600160a060020a0383166000908152600160208190526040909120429101555b806105d981610f36565b9150506103c5565b5050505050565b600054600160a060020a031633146106155760405160e560020a62461bcd0281526004016103b590610ea1565b61063960005474010000000000000000000000000000000000000000900460ff1690565b6106885760405160e560020a62461bcd02815260206004820152601460248201527f5061757361626c653a206e6f742070617573656400000000000000000000000060448201526064016103b5565b30318061069557506106ff565b604051339082156108fc029083906000818181858888f193505050501580156106c2573d6000803e3d6000fd5b50604080518281523a602082015233917fe3d0f1a4676b30f6f1603009186ab4512118de422f073c944d533e06345b5a58910160405180910390a2505b565b61072560005474010000000000000000000000000000000000000000900460ff1690565b156107755760405160e560020a62461bcd02815260206004820152601060248201527f5061757361626c653a207061757365640000000000000000000000000000000060448201526064016103b5565b336000908152600160205260409020548061079057506106ff565b33600090815260016020908152604080832083815542600290910155600390915290205461069590610bd0565b600054600160a060020a031633146107ea5760405160e560020a62461bcd0281526004016103b590610ea1565b600454600160a060020a03828116911614610828576004805473ffffffffffffffffffffffffffffffffffffffff1916600160a060020a0383161790555b50565b600054600160a060020a031633146108585760405160e560020a62461bcd0281526004016103b590610ea1565b60008054604051600160a060020a03909116907f8be0079c531659141344cd1fd0a4f28419497f9722a3daafe3b4186f6b6457e0908390a36000805473ffffffffffffffffffffffffffffffffffffffff19169055565b60008054600160a060020a031633146108dd5760405160e560020a62461bcd0281526004016103b590610ea1565b82600160a060020a031663a9059cbb6108fe600054600160a060020a031690565b6040517c010000000000000000000000000000000000000000000000000000000063ffffffff8416028152600160a060020a03909116600482015260248101859052604401602060405180830381600087803b15801561095d57600080fd5b505af1158015610971573d6000803e3d6000fd5b505050506040513d601f19601f820116820180604052508101906109959190610e69565b9392505050565b600054600160a060020a031633146109c95760405160e560020a62461bcd0281526004016103b590610ea1565b600160a060020a038116610a485760405160e560020a62461bcd02815260206004820152602660248201527f4f776e61626c653a206e6577206f776e657220697320746865207a65726f206160448201527f646472657373000000000000000000000000000000000000000000000000000060648201526084016103b5565b60008054604051600160a060020a03808516939216917f8be0079c531659141344cd1fd0a4f28419497f9722a3daafe3b4186f6b6457e091a36000805473ffffffffffffffffffffffffffffffffffffffff1916600160a060020a0392909216919091179055565b600054600160a060020a03163314610add5760405160e560020a62461bcd0281526004016103b590610ea1565b600160a060020a03811660009081526001602052604090205480610b015750610828565b600160a060020a0382166000908152600160209081526040808320838155426002909101553383526003909152902054610b3a90610bd0565b604051339082156108fc029083906000818181858888f19350505050158015610b67573d6000803e3d6000fd5b50604080518281523a602082015233917fe3d0f1a4676b30f6f1603009186ab4512118de422f073c944d533e06345b5a58910160405180910390a25050565b60028181548110610bb657600080fd5b600091825260209091200154600160a060020a0316905081565b60025460011180610bee5750600254610beb90600190610f1f565b81115b15610bf857610828565b60028054610c0890600190610f1f565b81548110610c295760e060020a634e487b7102600052603260045260246000fd5b60009182526020909120015460028054600160a060020a039092169183908110610c665760e060020a634e487b7102600052603260045260246000fd5b9060005260206000200160006101000a815481600160a060020a030219169083600160a060020a03160217905550806003600060028481548110610cbd5760e060020a634e487b7102600052603260045260246000fd5b6000918252602080832090910154600160a060020a031683528201929092526040019020556002805480610d045760e060020a634e487b7102600052603160045260246000fd5b6000828152602090208101600019908101805473ffffffffffffffffffffffffffffffffffffffff1916905501905550565b8035600160a060020a0381168114610d4d57600080fd5b919050565b600060208284031215610d63578081fd5b61099582610d36565b60008060408385031215610d7e578081fd5b610d8783610d36565b946020939093013593505050565b60006020808385031215610da7578182fd5b823567ffffffffffffffff80821115610dbe578384fd5b818501915085601f830112610dd1578384fd5b813581811115610de357610de3610f6a565b610df08485830201610ed6565b81815284810192508385016040808402860187018a1015610e0f578788fd5b8795505b83861015610e5b5780828b031215610e29578788fd5b610e3281610ed6565b610e3b83610d36565b815282880135888201528552600195909501949386019390810190610e13565b509098975050505050505050565b600060208284031215610e7a578081fd5b81518015158114610995578182fd5b600060208284031215610e9a578081fd5b5035919050565b6020808252818101527f4f776e61626c653a2063616c6c6572206973206e6f7420746865206f776e6572604082015260600190565b604051601f8201601f1916810167ffffffffffffffff81118282101715610eff57610eff610f6a565b604052919050565b60008219821115610f1a57610f1a610f51565b500190565b600082821015610f3157610f31610f51565b500390565b6000600019821415610f4a57610f4a610f51565b5060010190565b60e060020a634e487b7102600052601160045260246000fd5b60e060020a634e487b7102600052604160045260246000fdfea26469706673582212207e2afa4f5ca90ea4d087ab15479f2f8bbee22406c1ea9e93a215e5b95fd670f164736f6c63430008030033",
  "immutableReferences": {},
  "source": "// SPDX-License-Identifier: Copyright\npragma solidity ^0.8.0;\n\nimport '@openzeppelin/contracts/access/Ownable.sol';\nimport '@openzeppelin/contracts/security/Pausable.sol';\nimport '@openzeppelin/contracts/token/ERC20/IERC20.sol';\n\ncontract Allowances is Ownable, Pausable {\n\n  struct Allowance {\n    uint value;\n    uint added;\n    uint removed;\n  }\n\n  struct AllowanceParams {\n    address player;\n    uint value;\n  }\n\n  // to get all addresses look as scores list\n  mapping (address => Allowance) public addressToAllowance;\n\n  address[] public stakers;\n  mapping(address => uint) public stakerIdx;\n\n  address public bot;\n\n  // MODIFIERS\n  modifier onlyOwnerOrBot() {\n    require(owner() == msg.sender || bot == msg.sender, \"Caller is neither owner nor bot\");\n    _;\n  }\n\n  // EVENTS\n  event Removed(address indexed beneficiary, uint256 amount, uint256 gasprice);\n  event Added(address indexed account, uint256 allowance);\n\n  receive() external payable {}\n\n  function distribute(\n    AllowanceParams[] memory _allowanceParams\n  ) public onlyOwnerOrBot {\n    uint allowanceParamsLen = _allowanceParams.length;\n    address player;\n    uint value;\n\n    for(uint i = 0; i < allowanceParamsLen; i++) {\n      player = _allowanceParams[i].player;\n      value = _allowanceParams[i].value;\n\n      if(value == 0) {\n        stakers.push(player);\n        stakerIdx[player] = stakers.length - 1;\n\n        addressToAllowance[player] = Allowance({\n          value: _allowanceParams[i].value,\n          added: block.timestamp,\n          removed: 0\n        });\n      } else {\n        // add allowance\n        addressToAllowance[player].value += _allowanceParams[i].value;\n        addressToAllowance[player].added = block.timestamp;\n      }\n    }\n  }\n\n  // *** WITHDRAW\n  function withdraw() public whenNotPaused {\n\n    uint amount = addressToAllowance[msg.sender].value;\n    if(amount == 0) {\n      return;\n    }\n\n    addressToAllowance[msg.sender].value = 0;\n    addressToAllowance[msg.sender].removed = block.timestamp;\n\n    removeStaker(stakerIdx[msg.sender]);\n    payable(msg.sender).transfer(amount);\n\n    emit Removed(msg.sender, amount, tx.gasprice);\n  }\n\n  function fullWithdrawal() public onlyOwner whenPaused {\n    // don't update allowance to be able to transfer the data on contract update\n    uint amount = address(this).balance;\n    if(amount == 0) {\n      return;\n    }\n    payable(msg.sender).transfer(amount);\n    emit Removed(msg.sender, amount, tx.gasprice);\n  }\n\n  function ownerWithdraw(address _player) public onlyOwner {\n\n    uint amount = addressToAllowance[_player].value;\n    if(amount == 0) {\n      return;\n    }\n\n    addressToAllowance[_player].value = 0;\n    addressToAllowance[_player].removed = block.timestamp;\n    removeStaker(stakerIdx[msg.sender]);\n\n    payable(msg.sender).transfer(amount);\n\n    emit Removed(msg.sender, amount, tx.gasprice);\n  }\n\n  // Deleting an element creates a gap in the array.\n  // One trick to keep the array compact is to\n  // move the last element into the place to delete.\n  function removeStaker(uint index) internal {\n    if(stakers.length < 1 || index > stakers.length -1) {\n      return;\n    }\n\n    // Move the last element into the place to delete\n    stakers[index] = stakers[stakers.length - 1];\n\n    // update the index\n    stakerIdx[stakers[index]] = index;\n\n    // Remove the last element\n    stakers.pop();\n  }\n\n  function setBot(address _bot) external onlyOwner {\n    if(bot != _bot) {\n      bot = _bot;\n    }\n  }\n\n  // ------------------------------------------------------------------------\n  // Owner can transfer out any accidentally sent ERC20 tokens\n  // ------------------------------------------------------------------------\n  function transferAnyERC20Token(address tokenAddress, uint tokens) public onlyOwner returns (bool success) {\n    return IERC20(tokenAddress).transfer(owner(), tokens);\n  }\n\n}\n",
  "sourcePath": "/home/user/code/foxreymann/defi-demo/src/contracts/Allowances.sol",
  "compiler": {
    "name": "solc",
    "version": "0.8.3+commit.8d00100c.Emscripten.clang"
  },
  "schemaVersion": "3.2.4",
  "updatedAt": "2021-04-28T21:42:19.215Z",
  "devdoc": {
    "kind": "dev",
    "methods": {
      "owner()": {
        "details": "Returns the address of the current owner."
      },
      "paused()": {
        "details": "Returns true if the contract is paused, and false otherwise."
      },
      "renounceOwnership()": {
        "details": "Leaves the contract without owner. It will not be possible to call `onlyOwner` functions anymore. Can only be called by the current owner. NOTE: Renouncing ownership will leave the contract without an owner, thereby removing any functionality that is only available to the owner."
      },
      "transferOwnership(address)": {
        "details": "Transfers ownership of the contract to a new account (`newOwner`). Can only be called by the current owner."
      }
    },
    "version": 1
  },
  "userdoc": {
    "kind": "user",
    "methods": {},
    "version": 1
  }
}