{
  "contractName": "Allowances",
  "abi": [
    {
      "anonymous": false,
      "inputs": [
        {
          "indexed": true,
          "internalType": "address",
          "name": "account",
          "type": "address"
        },
        {
          "indexed": false,
          "internalType": "uint256",
          "name": "allowance",
          "type": "uint256"
        }
      ],
      "name": "Added",
      "type": "event"
    },
    {
      "anonymous": false,
      "inputs": [
        {
          "indexed": true,
          "internalType": "address",
          "name": "previousOwner",
          "type": "address"
        },
        {
          "indexed": true,
          "internalType": "address",
          "name": "newOwner",
          "type": "address"
        }
      ],
      "name": "OwnershipTransferred",
      "type": "event"
    },
    {
      "anonymous": false,
      "inputs": [
        {
          "indexed": false,
          "internalType": "address",
          "name": "account",
          "type": "address"
        }
      ],
      "name": "Paused",
      "type": "event"
    },
    {
      "anonymous": false,
      "inputs": [
        {
          "indexed": true,
          "internalType": "address",
          "name": "beneficiary",
          "type": "address"
        },
        {
          "indexed": false,
          "internalType": "uint256",
          "name": "amount",
          "type": "uint256"
        },
        {
          "indexed": false,
          "internalType": "uint256",
          "name": "gasprice",
          "type": "uint256"
        }
      ],
      "name": "Removed",
      "type": "event"
    },
    {
      "anonymous": false,
      "inputs": [
        {
          "indexed": false,
          "internalType": "address",
          "name": "account",
          "type": "address"
        }
      ],
      "name": "Unpaused",
      "type": "event"
    },
    {
      "inputs": [
        {
          "internalType": "address",
          "name": "",
          "type": "address"
        }
      ],
      "name": "addressToAllowance",
      "outputs": [
        {
          "internalType": "uint256",
          "name": "value",
          "type": "uint256"
        },
        {
          "internalType": "uint256",
          "name": "added",
          "type": "uint256"
        },
        {
          "internalType": "uint256",
          "name": "removed",
          "type": "uint256"
        }
      ],
      "stateMutability": "view",
      "type": "function"
    },
    {
      "inputs": [],
      "name": "bot",
      "outputs": [
        {
          "internalType": "address",
          "name": "",
          "type": "address"
        }
      ],
      "stateMutability": "view",
      "type": "function"
    },
    {
      "inputs": [
        {
          "internalType": "address",
          "name": "",
          "type": "address"
        }
      ],
      "name": "isStaking",
      "outputs": [
        {
          "internalType": "bool",
          "name": "",
          "type": "bool"
        }
      ],
      "stateMutability": "view",
      "type": "function"
    },
    {
      "inputs": [],
      "name": "owner",
      "outputs": [
        {
          "internalType": "address",
          "name": "",
          "type": "address"
        }
      ],
      "stateMutability": "view",
      "type": "function"
    },
    {
      "inputs": [],
      "name": "paused",
      "outputs": [
        {
          "internalType": "bool",
          "name": "",
          "type": "bool"
        }
      ],
      "stateMutability": "view",
      "type": "function"
    },
    {
      "inputs": [],
      "name": "renounceOwnership",
      "outputs": [],
      "stateMutability": "nonpayable",
      "type": "function"
    },
    {
      "inputs": [
        {
          "internalType": "address",
          "name": "",
          "type": "address"
        }
      ],
      "name": "stakerIdx",
      "outputs": [
        {
          "internalType": "uint256",
          "name": "",
          "type": "uint256"
        }
      ],
      "stateMutability": "view",
      "type": "function"
    },
    {
      "inputs": [
        {
          "internalType": "uint256",
          "name": "",
          "type": "uint256"
        }
      ],
      "name": "stakers",
      "outputs": [
        {
          "internalType": "address",
          "name": "",
          "type": "address"
        }
      ],
      "stateMutability": "view",
      "type": "function"
    },
    {
      "inputs": [
        {
          "internalType": "address",
          "name": "newOwner",
          "type": "address"
        }
      ],
      "name": "transferOwnership",
      "outputs": [],
      "stateMutability": "nonpayable",
      "type": "function"
    },
    {
      "stateMutability": "payable",
      "type": "receive"
    },
    {
      "inputs": [],
      "name": "withdraw",
      "outputs": [],
      "stateMutability": "nonpayable",
      "type": "function"
    },
    {
      "inputs": [],
      "name": "fullWithdrawal",
      "outputs": [],
      "stateMutability": "nonpayable",
      "type": "function"
    },
    {
      "inputs": [
        {
          "internalType": "address",
          "name": "_player",
          "type": "address"
        }
      ],
      "name": "ownerWithdraw",
      "outputs": [],
      "stateMutability": "nonpayable",
      "type": "function"
    },
    {
      "inputs": [
        {
          "internalType": "address",
          "name": "_bot",
          "type": "address"
        }
      ],
      "name": "setBot",
      "outputs": [],
      "stateMutability": "nonpayable",
      "type": "function"
    },
    {
      "inputs": [
        {
          "internalType": "address",
          "name": "tokenAddress",
          "type": "address"
        },
        {
          "internalType": "uint256",
          "name": "tokens",
          "type": "uint256"
        }
      ],
      "name": "transferAnyERC20Token",
      "outputs": [
        {
          "internalType": "bool",
          "name": "success",
          "type": "bool"
        }
      ],
      "stateMutability": "nonpayable",
      "type": "function"
    }
  ],
  "bytecode": "0x608060405234801561001057600080fd5b506000610024640100000000610083810204565b60008054600160a060020a031916600160a060020a0383169081178255604051929350917f8be0079c531659141344cd1fd0a4f28419497f9722a3daafe3b4186f6b6457e0908290a3506000805460a060020a60ff0219169055610087565b3390565b610bc7806100966000396000f3fe6080604052600436106100fe576000357c010000000000000000000000000000000000000000000000000000000090048063715018a61161009c578063dc39d06d11610076578063dc39d06d146102c8578063f2fde38b146102e8578063f9bfaa7d14610308578063fd5e6dd11461032857610105565b8063715018a61461025a5780638da5cb5b1461026f578063a0c126831461028d57610105565b80633ccfd60b116100d85780633ccfd60b146101b45780635c975abb146101c95780636b5caec41461020a5780636f49712b1461022a57610105565b80630d32c3761461010a57806310814c371461016557806335343c2d1461019d57610105565b3661010557005b600080fd5b34801561011657600080fd5b50610145610125366004610abb565b600160208190526000918252604090912080549181015460029091015483565b604080519384526020840192909252908201526060015b60405180910390f35b34801561017157600080fd5b5060055461018590600160a060020a031681565b604051600160a060020a03909116815260200161015c565b3480156101a957600080fd5b506101b2610348565b005b3480156101c057600080fd5b506101b261046a565b3480156101d557600080fd5b506101fa60005474010000000000000000000000000000000000000000900460ff1690565b604051901515815260200161015c565b34801561021657600080fd5b506101b2610225366004610abb565b610526565b34801561023657600080fd5b506101fa610245366004610abb565b60036020526000908152604090205460ff1681565b34801561026657600080fd5b506101b2610594565b34801561027b57600080fd5b50600054600160a060020a0316610185565b34801561029957600080fd5b506102ba6102a8366004610abb565b60046020526000908152604090205481565b60405190815260200161015c565b3480156102d457600080fd5b506101fa6102e3366004610ad5565b610618565b3480156102f457600080fd5b506101b2610303366004610abb565b610705565b34801561031457600080fd5b506101b2610323366004610abb565b610819565b34801561033457600080fd5b50610185610343366004610b1e565b61090f565b600054600160a060020a0316331461037e5760405160e560020a62461bcd02815260040161037590610b36565b60405180910390fd5b6103a260005474010000000000000000000000000000000000000000900460ff1690565b6103f15760405160e560020a62461bcd02815260206004820152601460248201527f5061757361626c653a206e6f74207061757365640000000000000000000000006044820152606401610375565b3031806103fe5750610468565b604051339082156108fc029083906000818181858888f1935050505015801561042b573d6000803e3d6000fd5b50604080518281523a602082015233917fe3d0f1a4676b30f6f1603009186ab4512118de422f073c944d533e06345b5a58910160405180910390a2505b565b61048e60005474010000000000000000000000000000000000000000900460ff1690565b156104de5760405160e560020a62461bcd02815260206004820152601060248201527f5061757361626c653a20706175736564000000000000000000000000000000006044820152606401610375565b33600090815260016020526040902054806104f95750610468565b3360009081526001602090815260408083208381554260029091015560049091529020546103fe90610939565b600054600160a060020a031633146105535760405160e560020a62461bcd02815260040161037590610b36565b600554600160a060020a03828116911614610591576005805473ffffffffffffffffffffffffffffffffffffffff1916600160a060020a0383161790555b50565b600054600160a060020a031633146105c15760405160e560020a62461bcd02815260040161037590610b36565b60008054604051600160a060020a03909116907f8be0079c531659141344cd1fd0a4f28419497f9722a3daafe3b4186f6b6457e0908390a36000805473ffffffffffffffffffffffffffffffffffffffff19169055565b60008054600160a060020a031633146106465760405160e560020a62461bcd02815260040161037590610b36565b82600160a060020a031663a9059cbb610667600054600160a060020a031690565b6040517c010000000000000000000000000000000000000000000000000000000063ffffffff8416028152600160a060020a03909116600482015260248101859052604401602060405180830381600087803b1580156106c657600080fd5b505af11580156106da573d6000803e3d6000fd5b505050506040513d601f19601f820116820180604052508101906106fe9190610afe565b9392505050565b600054600160a060020a031633146107325760405160e560020a62461bcd02815260040161037590610b36565b600160a060020a0381166107b15760405160e560020a62461bcd02815260206004820152602660248201527f4f776e61626c653a206e6577206f776e657220697320746865207a65726f206160448201527f64647265737300000000000000000000000000000000000000000000000000006064820152608401610375565b60008054604051600160a060020a03808516939216917f8be0079c531659141344cd1fd0a4f28419497f9722a3daafe3b4186f6b6457e091a36000805473ffffffffffffffffffffffffffffffffffffffff1916600160a060020a0392909216919091179055565b600054600160a060020a031633146108465760405160e560020a62461bcd02815260040161037590610b36565b600160a060020a0381166000908152600160205260409020548061086a5750610591565b600160a060020a03821660009081526001602090815260408083208381554260029091015533835260049091529020546108a390610939565b604051339082156108fc029083906000818181858888f193505050501580156108d0573d6000803e3d6000fd5b50604080518281523a602082015233917fe3d0f1a4676b30f6f1603009186ab4512118de422f073c944d533e06345b5a58910160405180910390a25050565b6002818154811061091f57600080fd5b600091825260209091200154600160a060020a0316905081565b60025460011180610957575060025461095490600190610b6b565b81115b1561096157610591565b6002805461097190600190610b6b565b815481106109925760e060020a634e487b7102600052603260045260246000fd5b60009182526020909120015460028054600160a060020a0390921691839081106109cf5760e060020a634e487b7102600052603260045260246000fd5b9060005260206000200160006101000a815481600160a060020a030219169083600160a060020a03160217905550806004600060028481548110610a265760e060020a634e487b7102600052603260045260246000fd5b6000918252602080832090910154600160a060020a031683528201929092526040019020556002805480610a6d5760e060020a634e487b7102600052603160045260246000fd5b6000828152602090208101600019908101805473ffffffffffffffffffffffffffffffffffffffff1916905501905550565b8035600160a060020a0381168114610ab657600080fd5b919050565b600060208284031215610acc578081fd5b6106fe82610a9f565b60008060408385031215610ae7578081fd5b610af083610a9f565b946020939093013593505050565b600060208284031215610b0f578081fd5b815180151581146106fe578182fd5b600060208284031215610b2f578081fd5b5035919050565b6020808252818101527f4f776e61626c653a2063616c6c6572206973206e6f7420746865206f776e6572604082015260600190565b600082821015610b8c5760e060020a634e487b710281526011600452602481fd5b50039056fea2646970667358221220126c75155b7c4143e8ed0554355c16ccc427288c589405cc34645f2256d2277d64736f6c63430008030033",
  "immutableReferences": {},
  "source": "// SPDX-License-Identifier: Copyright\npragma solidity ^0.8.0;\n\nimport '@openzeppelin/contracts/access/Ownable.sol';\nimport '@openzeppelin/contracts/security/Pausable.sol';\nimport '@openzeppelin/contracts/token/ERC20/IERC20.sol';\n\ncontract Allowances is Ownable, Pausable {\n\n  struct Allowance {\n    uint value;\n    uint added;\n    uint removed;\n  }\n\n  // to get all addresses look as scores list\n  mapping (address => Allowance) public addressToAllowance;\n\n  address[] public stakers;\n  mapping(address => bool) public isStaking;\n  mapping(address => uint) public stakerIdx;\n\n  address public bot;\n\n  // MODIFIERS\n  modifier onlyOwnerOrBot() {\n    require(owner() == msg.sender || bot == msg.sender, \"Caller is neither owner nor bot\");\n    _;\n  }\n\n  // EVENTS\n  event Removed(address indexed beneficiary, uint256 amount, uint256 gasprice);\n  event Added(address indexed account, uint256 allowance);\n\n  receive() external payable {}\n\n  // *** WITHDRAW\n  function withdraw() public whenNotPaused {\n\n    uint amount = addressToAllowance[msg.sender].value;\n    if(amount == 0) {\n      return;\n    }\n\n    addressToAllowance[msg.sender].value = 0;\n    addressToAllowance[msg.sender].removed = block.timestamp;\n    removeStaker(stakerIdx[msg.sender]);\n    payable(msg.sender).transfer(amount);\n\n    emit Removed(msg.sender, amount, tx.gasprice);\n  }\n\n  function fullWithdrawal() public onlyOwner whenPaused {\n    // don't update allowance to be able to transfer the data on contract update\n    uint amount = address(this).balance;\n    if(amount == 0) {\n      return;\n    }\n    payable(msg.sender).transfer(amount);\n    emit Removed(msg.sender, amount, tx.gasprice);\n  }\n\n  function ownerWithdraw(address _player) public onlyOwner {\n\n    uint amount = addressToAllowance[_player].value;\n    if(amount == 0) {\n      return;\n    }\n\n    addressToAllowance[_player].value = 0;\n    addressToAllowance[_player].removed = block.timestamp;\n    removeStaker(stakerIdx[msg.sender]);\n\n    payable(msg.sender).transfer(amount);\n\n    emit Removed(msg.sender, amount, tx.gasprice);\n  }\n\n  // Deleting an element creates a gap in the array.\n  // One trick to keep the array compact is to\n  // move the last element into the place to delete.\n  function removeStaker(uint index) internal {\n    if(stakers.length < 1 || index > stakers.length -1) {\n      return;\n    }\n\n    // Move the last element into the place to delete\n    stakers[index] = stakers[stakers.length - 1];\n\n    // update the index\n    stakerIdx[stakers[index]] = index;\n\n    // Remove the last element\n    stakers.pop();\n  }\n\n  function setBot(address _bot) external onlyOwner {\n    if(bot != _bot) {\n      bot = _bot;\n    }\n  }\n\n  // ------------------------------------------------------------------------\n  // Owner can transfer out any accidentally sent ERC20 tokens\n  // ------------------------------------------------------------------------\n  function transferAnyERC20Token(address tokenAddress, uint tokens) public onlyOwner returns (bool success) {\n    return IERC20(tokenAddress).transfer(owner(), tokens);\n  }\n\n}\n",
  "sourcePath": "/home/user/code/foxreymann/defi-demo/src/contracts/Allowances.sol",
  "compiler": {
    "name": "solc",
    "version": "0.8.3+commit.8d00100c.Emscripten.clang"
  },
  "schemaVersion": "3.2.4",
  "updatedAt": "2021-04-27T20:51:14.500Z",
  "devdoc": {
    "kind": "dev",
    "methods": {
      "owner()": {
        "details": "Returns the address of the current owner."
      },
      "paused()": {
        "details": "Returns true if the contract is paused, and false otherwise."
      },
      "renounceOwnership()": {
        "details": "Leaves the contract without owner. It will not be possible to call `onlyOwner` functions anymore. Can only be called by the current owner. NOTE: Renouncing ownership will leave the contract without an owner, thereby removing any functionality that is only available to the owner."
      },
      "transferOwnership(address)": {
        "details": "Transfers ownership of the contract to a new account (`newOwner`). Can only be called by the current owner."
      }
    },
    "version": 1
  },
  "userdoc": {
    "kind": "user",
    "methods": {},
    "version": 1
  }
}