{
  "contractName": "Allowances",
  "abi": [
    {
      "anonymous": false,
      "inputs": [
        {
          "indexed": true,
          "internalType": "address",
          "name": "account",
          "type": "address"
        },
        {
          "indexed": false,
          "internalType": "uint256",
          "name": "allowance",
          "type": "uint256"
        }
      ],
      "name": "Added",
      "type": "event"
    },
    {
      "anonymous": false,
      "inputs": [
        {
          "indexed": true,
          "internalType": "address",
          "name": "previousOwner",
          "type": "address"
        },
        {
          "indexed": true,
          "internalType": "address",
          "name": "newOwner",
          "type": "address"
        }
      ],
      "name": "OwnershipTransferred",
      "type": "event"
    },
    {
      "anonymous": false,
      "inputs": [
        {
          "indexed": false,
          "internalType": "address",
          "name": "account",
          "type": "address"
        }
      ],
      "name": "Paused",
      "type": "event"
    },
    {
      "anonymous": false,
      "inputs": [
        {
          "indexed": true,
          "internalType": "address",
          "name": "beneficiary",
          "type": "address"
        },
        {
          "indexed": false,
          "internalType": "uint256",
          "name": "amount",
          "type": "uint256"
        },
        {
          "indexed": false,
          "internalType": "uint256",
          "name": "gasprice",
          "type": "uint256"
        }
      ],
      "name": "Removed",
      "type": "event"
    },
    {
      "anonymous": false,
      "inputs": [
        {
          "indexed": false,
          "internalType": "address",
          "name": "account",
          "type": "address"
        }
      ],
      "name": "Unpaused",
      "type": "event"
    },
    {
      "inputs": [
        {
          "internalType": "address",
          "name": "",
          "type": "address"
        }
      ],
      "name": "addressToAllowance",
      "outputs": [
        {
          "internalType": "uint256",
          "name": "value",
          "type": "uint256"
        },
        {
          "internalType": "uint256",
          "name": "added",
          "type": "uint256"
        },
        {
          "internalType": "uint256",
          "name": "removed",
          "type": "uint256"
        }
      ],
      "stateMutability": "view",
      "type": "function"
    },
    {
      "inputs": [],
      "name": "bot",
      "outputs": [
        {
          "internalType": "address",
          "name": "",
          "type": "address"
        }
      ],
      "stateMutability": "view",
      "type": "function"
    },
    {
      "inputs": [
        {
          "internalType": "address",
          "name": "",
          "type": "address"
        }
      ],
      "name": "isStaking",
      "outputs": [
        {
          "internalType": "bool",
          "name": "",
          "type": "bool"
        }
      ],
      "stateMutability": "view",
      "type": "function"
    },
    {
      "inputs": [],
      "name": "owner",
      "outputs": [
        {
          "internalType": "address",
          "name": "",
          "type": "address"
        }
      ],
      "stateMutability": "view",
      "type": "function"
    },
    {
      "inputs": [],
      "name": "paused",
      "outputs": [
        {
          "internalType": "bool",
          "name": "",
          "type": "bool"
        }
      ],
      "stateMutability": "view",
      "type": "function"
    },
    {
      "inputs": [],
      "name": "renounceOwnership",
      "outputs": [],
      "stateMutability": "nonpayable",
      "type": "function"
    },
    {
      "inputs": [
        {
          "internalType": "address",
          "name": "",
          "type": "address"
        }
      ],
      "name": "stakerIdx",
      "outputs": [
        {
          "internalType": "uint256",
          "name": "",
          "type": "uint256"
        }
      ],
      "stateMutability": "view",
      "type": "function"
    },
    {
      "inputs": [
        {
          "internalType": "uint256",
          "name": "",
          "type": "uint256"
        }
      ],
      "name": "stakers",
      "outputs": [
        {
          "internalType": "address",
          "name": "",
          "type": "address"
        }
      ],
      "stateMutability": "view",
      "type": "function"
    },
    {
      "inputs": [
        {
          "internalType": "address",
          "name": "newOwner",
          "type": "address"
        }
      ],
      "name": "transferOwnership",
      "outputs": [],
      "stateMutability": "nonpayable",
      "type": "function"
    },
    {
      "stateMutability": "payable",
      "type": "receive"
    },
    {
      "inputs": [
        {
          "components": [
            {
              "internalType": "address",
              "name": "player",
              "type": "address"
            },
            {
              "internalType": "uint256",
              "name": "value",
              "type": "uint256"
            }
          ],
          "internalType": "struct Allowances.AllowanceParams[]",
          "name": "_allowanceParams",
          "type": "tuple[]"
        }
      ],
      "name": "distribute",
      "outputs": [],
      "stateMutability": "nonpayable",
      "type": "function"
    },
    {
      "inputs": [],
      "name": "withdraw",
      "outputs": [],
      "stateMutability": "nonpayable",
      "type": "function"
    },
    {
      "inputs": [],
      "name": "fullWithdrawal",
      "outputs": [],
      "stateMutability": "nonpayable",
      "type": "function"
    },
    {
      "inputs": [
        {
          "internalType": "address",
          "name": "_player",
          "type": "address"
        }
      ],
      "name": "ownerWithdraw",
      "outputs": [],
      "stateMutability": "nonpayable",
      "type": "function"
    },
    {
      "inputs": [
        {
          "internalType": "address",
          "name": "_bot",
          "type": "address"
        }
      ],
      "name": "setBot",
      "outputs": [],
      "stateMutability": "nonpayable",
      "type": "function"
    },
    {
      "inputs": [
        {
          "internalType": "address",
          "name": "tokenAddress",
          "type": "address"
        },
        {
          "internalType": "uint256",
          "name": "tokens",
          "type": "uint256"
        }
      ],
      "name": "transferAnyERC20Token",
      "outputs": [
        {
          "internalType": "bool",
          "name": "success",
          "type": "bool"
        }
      ],
      "stateMutability": "nonpayable",
      "type": "function"
    }
  ],
  "bytecode": "0x608060405234801561001057600080fd5b506000610024640100000000610083810204565b60008054600160a060020a031916600160a060020a0383169081178255604051929350917f8be0079c531659141344cd1fd0a4f28419497f9722a3daafe3b4186f6b6457e0908290a3506000805460a060020a60ff0219169055610087565b3390565b610fe8806100966000396000f3fe608060405260043610610109576000357c0100000000000000000000000000000000000000000000000000000000900480636f49712b116100a7578063dc39d06d11610076578063dc39d06d146102f3578063f2fde38b14610313578063f9bfaa7d14610333578063fd5e6dd11461035357610110565b80636f49712b14610255578063715018a6146102855780638da5cb5b1461029a578063a0c12683146102b857610110565b806335343c2d116100e357806335343c2d146101ca5780633ccfd60b146101df5780635c975abb146101f45780636b5caec41461023557610110565b80630d32c3761461011557806310814c37146101705780631c378573146101a857610110565b3661011057005b600080fd5b34801561012157600080fd5b50610150610130366004610d81565b600160208190526000918252604090912080549181015460029091015483565b604080519384526020840192909252908201526060015b60405180910390f35b34801561017c57600080fd5b5060055461019090600160a060020a031681565b604051600160a060020a039091168152602001610167565b3480156101b457600080fd5b506101c86101c3366004610dc4565b610373565b005b3480156101d657600080fd5b506101c86105c4565b3480156101eb57600080fd5b506101c86106dd565b34801561020057600080fd5b5061022560005474010000000000000000000000000000000000000000900460ff1690565b6040519015158152602001610167565b34801561024157600080fd5b506101c8610250366004610d81565b6107d9565b34801561026157600080fd5b50610225610270366004610d81565b60036020526000908152604090205460ff1681565b34801561029157600080fd5b506101c8610847565b3480156102a657600080fd5b50600054600160a060020a0316610190565b3480156102c457600080fd5b506102e56102d3366004610d81565b60046020526000908152604090205481565b604051908152602001610167565b3480156102ff57600080fd5b5061022561030e366004610d9b565b6108cb565b34801561031f57600080fd5b506101c861032e366004610d81565b6109b8565b34801561033f57600080fd5b506101c861034e366004610d81565b610acc565b34801561035f57600080fd5b5061019061036e366004610eb8565b610bd5565b600054600160a060020a031633146103a95760405160e560020a62461bcd0281526004016103a090610ed0565b60405180910390fd5b80516000805b828110156105be578381815181106103da5760e060020a634e487b7102600052603260045260246000fd5b60209081029190910181015151600160a060020a0381166000908152600390925260409091205490925060ff1661052157600280546001808201835560008390527f405787fa12a823e0f2b7631cc41b3ba8828b3321ca811111fa75cd3aa3bb5ace909101805473ffffffffffffffffffffffffffffffffffffffff1916600160a060020a03861617905590546104719190610f4e565b600160a060020a03831660009081526004602090815260408083209390935560039052819020805460ff19166001179055805160608101909152845181908690849081106104d25760e060020a634e487b7102600052603260045260246000fd5b6020908102919091018101518101518252428282015260006040928301819052600160a060020a03861681526001808352908390208451815591840151908201559101516002909101556105ac565b8381815181106105445760e060020a634e487b7102600052603260045260246000fd5b6020026020010151602001516001600084600160a060020a0316600160a060020a0316815260200190815260200160002060000160008282546105879190610f36565b9091555050600160a060020a0382166000908152600160208190526040909120429101555b806105b681610f65565b9150506103af565b50505050565b600054600160a060020a031633146105f15760405160e560020a62461bcd0281526004016103a090610ed0565b61061560005474010000000000000000000000000000000000000000900460ff1690565b6106645760405160e560020a62461bcd02815260206004820152601460248201527f5061757361626c653a206e6f742070617573656400000000000000000000000060448201526064016103a0565b30318061067157506106db565b604051339082156108fc029083906000818181858888f1935050505015801561069e573d6000803e3d6000fd5b50604080518281523a602082015233917fe3d0f1a4676b30f6f1603009186ab4512118de422f073c944d533e06345b5a58910160405180910390a2505b565b61070160005474010000000000000000000000000000000000000000900460ff1690565b156107515760405160e560020a62461bcd02815260206004820152601060248201527f5061757361626c653a207061757365640000000000000000000000000000000060448201526064016103a0565b336000908152600160205260409020548061076c57506106db565b33600090815260016020908152604080832083815542600290910155600490915290205461079990610bff565b33600081815260036020526040808220805460ff191690555183156108fc0291849190818181858888f1935050505015801561069e573d6000803e3d6000fd5b600054600160a060020a031633146108065760405160e560020a62461bcd0281526004016103a090610ed0565b600554600160a060020a03828116911614610844576005805473ffffffffffffffffffffffffffffffffffffffff1916600160a060020a0383161790555b50565b600054600160a060020a031633146108745760405160e560020a62461bcd0281526004016103a090610ed0565b60008054604051600160a060020a03909116907f8be0079c531659141344cd1fd0a4f28419497f9722a3daafe3b4186f6b6457e0908390a36000805473ffffffffffffffffffffffffffffffffffffffff19169055565b60008054600160a060020a031633146108f95760405160e560020a62461bcd0281526004016103a090610ed0565b82600160a060020a031663a9059cbb61091a600054600160a060020a031690565b6040517c010000000000000000000000000000000000000000000000000000000063ffffffff8416028152600160a060020a03909116600482015260248101859052604401602060405180830381600087803b15801561097957600080fd5b505af115801561098d573d6000803e3d6000fd5b505050506040513d601f19601f820116820180604052508101906109b19190610e98565b9392505050565b600054600160a060020a031633146109e55760405160e560020a62461bcd0281526004016103a090610ed0565b600160a060020a038116610a645760405160e560020a62461bcd02815260206004820152602660248201527f4f776e61626c653a206e6577206f776e657220697320746865207a65726f206160448201527f646472657373000000000000000000000000000000000000000000000000000060648201526084016103a0565b60008054604051600160a060020a03808516939216917f8be0079c531659141344cd1fd0a4f28419497f9722a3daafe3b4186f6b6457e091a36000805473ffffffffffffffffffffffffffffffffffffffff1916600160a060020a0392909216919091179055565b600054600160a060020a03163314610af95760405160e560020a62461bcd0281526004016103a090610ed0565b600160a060020a03811660009081526001602052604090205480610b1d5750610844565b600160a060020a0382166000908152600160209081526040808320838155426002909101553383526004909152902054610b5690610bff565b33600081815260036020526040808220805460ff191690555183156108fc0291849190818181858888f19350505050158015610b96573d6000803e3d6000fd5b50604080518281523a602082015233917fe3d0f1a4676b30f6f1603009186ab4512118de422f073c944d533e06345b5a58910160405180910390a25050565b60028181548110610be557600080fd5b600091825260209091200154600160a060020a0316905081565b60025460011180610c1d5750600254610c1a90600190610f4e565b81115b15610c2757610844565b60028054610c3790600190610f4e565b81548110610c585760e060020a634e487b7102600052603260045260246000fd5b60009182526020909120015460028054600160a060020a039092169183908110610c955760e060020a634e487b7102600052603260045260246000fd5b9060005260206000200160006101000a815481600160a060020a030219169083600160a060020a03160217905550806004600060028481548110610cec5760e060020a634e487b7102600052603260045260246000fd5b6000918252602080832090910154600160a060020a031683528201929092526040019020556002805480610d335760e060020a634e487b7102600052603160045260246000fd5b6000828152602090208101600019908101805473ffffffffffffffffffffffffffffffffffffffff1916905501905550565b8035600160a060020a0381168114610d7c57600080fd5b919050565b600060208284031215610d92578081fd5b6109b182610d65565b60008060408385031215610dad578081fd5b610db683610d65565b946020939093013593505050565b60006020808385031215610dd6578182fd5b823567ffffffffffffffff80821115610ded578384fd5b818501915085601f830112610e00578384fd5b813581811115610e1257610e12610f99565b610e1f8485830201610f05565b81815284810192508385016040808402860187018a1015610e3e578788fd5b8795505b83861015610e8a5780828b031215610e58578788fd5b610e6181610f05565b610e6a83610d65565b815282880135888201528552600195909501949386019390810190610e42565b509098975050505050505050565b600060208284031215610ea9578081fd5b815180151581146109b1578182fd5b600060208284031215610ec9578081fd5b5035919050565b6020808252818101527f4f776e61626c653a2063616c6c6572206973206e6f7420746865206f776e6572604082015260600190565b604051601f8201601f1916810167ffffffffffffffff81118282101715610f2e57610f2e610f99565b604052919050565b60008219821115610f4957610f49610f80565b500190565b600082821015610f6057610f60610f80565b500390565b6000600019821415610f7957610f79610f80565b5060010190565b60e060020a634e487b7102600052601160045260246000fd5b60e060020a634e487b7102600052604160045260246000fdfea26469706673582212205559421e5a7b46e71b2c9c5c9d051100cc520c483f6e9a9709d796cdbd2bcd0164736f6c63430008030033",
  "immutableReferences": {},
  "source": "// SPDX-License-Identifier: Copyright\npragma solidity ^0.8.0;\n\nimport '@openzeppelin/contracts/access/Ownable.sol';\nimport '@openzeppelin/contracts/security/Pausable.sol';\nimport '@openzeppelin/contracts/token/ERC20/IERC20.sol';\n\ncontract Allowances is Ownable, Pausable {\n\n  struct Allowance {\n    uint value;\n    uint added;\n    uint removed;\n  }\n\n  struct AllowanceParams {\n    address player;\n    uint value;\n  }\n\n  // to get all addresses look as scores list\n  mapping (address => Allowance) public addressToAllowance;\n\n  address[] public stakers;\n  mapping(address => bool) public isStaking;\n  mapping(address => uint) public stakerIdx;\n\n  address public bot;\n\n  // MODIFIERS\n  modifier onlyOwnerOrBot() {\n    require(owner() == msg.sender || bot == msg.sender, \"Caller is neither owner nor bot\");\n    _;\n  }\n\n  // EVENTS\n  event Removed(address indexed beneficiary, uint256 amount, uint256 gasprice);\n  event Added(address indexed account, uint256 allowance);\n\n  receive() external payable {}\n\n  function distribute(\n    AllowanceParams[] memory _allowanceParams\n  ) public onlyOwner {\n    uint allowanceParamsLen = _allowanceParams.length;\n    address player;\n\n    for(uint i = 0; i < allowanceParamsLen; i++) {\n      player = _allowanceParams[i].player;\n\n      if(!isStaking[player]) {\n        stakers.push(player);\n        stakerIdx[player] = stakers.length - 1;\n        isStaking[player] = true;\n\n        addressToAllowance[player] = Allowance({\n          value: _allowanceParams[i].value,\n          added: block.timestamp,\n          removed: 0\n        });\n      } else {\n        // add allowance\n        addressToAllowance[player].value += _allowanceParams[i].value;\n        addressToAllowance[player].added = block.timestamp;\n      }\n    }\n\n  }\n\n  // *** WITHDRAW\n  function withdraw() public whenNotPaused {\n\n    uint amount = addressToAllowance[msg.sender].value;\n    if(amount == 0) {\n      return;\n    }\n\n    addressToAllowance[msg.sender].value = 0;\n    addressToAllowance[msg.sender].removed = block.timestamp;\n\n    removeStaker(stakerIdx[msg.sender]);\n    isStaking[msg.sender] = false;\n    payable(msg.sender).transfer(amount);\n\n    emit Removed(msg.sender, amount, tx.gasprice);\n  }\n\n  function fullWithdrawal() public onlyOwner whenPaused {\n    // don't update allowance to be able to transfer the data on contract update\n    uint amount = address(this).balance;\n    if(amount == 0) {\n      return;\n    }\n    payable(msg.sender).transfer(amount);\n    emit Removed(msg.sender, amount, tx.gasprice);\n  }\n\n  function ownerWithdraw(address _player) public onlyOwner {\n\n    uint amount = addressToAllowance[_player].value;\n    if(amount == 0) {\n      return;\n    }\n\n    addressToAllowance[_player].value = 0;\n    addressToAllowance[_player].removed = block.timestamp;\n    removeStaker(stakerIdx[msg.sender]);\n    isStaking[msg.sender] = false;\n\n    payable(msg.sender).transfer(amount);\n\n    emit Removed(msg.sender, amount, tx.gasprice);\n  }\n\n  // Deleting an element creates a gap in the array.\n  // One trick to keep the array compact is to\n  // move the last element into the place to delete.\n  function removeStaker(uint index) internal {\n    if(stakers.length < 1 || index > stakers.length -1) {\n      return;\n    }\n\n    // Move the last element into the place to delete\n    stakers[index] = stakers[stakers.length - 1];\n\n    // update the index\n    stakerIdx[stakers[index]] = index;\n\n    // Remove the last element\n    stakers.pop();\n  }\n\n  function setBot(address _bot) external onlyOwner {\n    if(bot != _bot) {\n      bot = _bot;\n    }\n  }\n\n  // ------------------------------------------------------------------------\n  // Owner can transfer out any accidentally sent ERC20 tokens\n  // ------------------------------------------------------------------------\n  function transferAnyERC20Token(address tokenAddress, uint tokens) public onlyOwner returns (bool success) {\n    return IERC20(tokenAddress).transfer(owner(), tokens);\n  }\n\n}\n",
  "sourcePath": "/home/user/code/foxreymann/defi-demo/src/contracts/Allowances.sol",
  "compiler": {
    "name": "solc",
    "version": "0.8.3+commit.8d00100c.Emscripten.clang"
  },
  "schemaVersion": "3.2.4",
  "updatedAt": "2021-04-28T20:53:29.119Z",
  "devdoc": {
    "kind": "dev",
    "methods": {
      "owner()": {
        "details": "Returns the address of the current owner."
      },
      "paused()": {
        "details": "Returns true if the contract is paused, and false otherwise."
      },
      "renounceOwnership()": {
        "details": "Leaves the contract without owner. It will not be possible to call `onlyOwner` functions anymore. Can only be called by the current owner. NOTE: Renouncing ownership will leave the contract without an owner, thereby removing any functionality that is only available to the owner."
      },
      "transferOwnership(address)": {
        "details": "Transfers ownership of the contract to a new account (`newOwner`). Can only be called by the current owner."
      }
    },
    "version": 1
  },
  "userdoc": {
    "kind": "user",
    "methods": {},
    "version": 1
  }
}