{
  "_format": "hh-sol-artifact-1",
  "contractName": "MasterThunder",
  "sourceName": "contracts/MasterThunder.sol",
  "abi": [
    {
      "inputs": [
        {
          "internalType": "contract Punch",
          "name": "_punch",
          "type": "address"
        },
        {
          "internalType": "uint256",
          "name": "_punchPerBlock",
          "type": "uint256"
        }
      ],
      "stateMutability": "nonpayable",
      "type": "constructor"
    },
    {
      "anonymous": false,
      "inputs": [
        {
          "indexed": true,
          "internalType": "address",
          "name": "user",
          "type": "address"
        },
        {
          "indexed": true,
          "internalType": "uint256",
          "name": "pid",
          "type": "uint256"
        },
        {
          "indexed": false,
          "internalType": "uint256",
          "name": "amount",
          "type": "uint256"
        }
      ],
      "name": "Deposit",
      "type": "event"
    },
    {
      "anonymous": false,
      "inputs": [
        {
          "indexed": true,
          "internalType": "address",
          "name": "user",
          "type": "address"
        },
        {
          "indexed": true,
          "internalType": "uint256",
          "name": "pid",
          "type": "uint256"
        },
        {
          "indexed": false,
          "internalType": "uint256",
          "name": "amount",
          "type": "uint256"
        }
      ],
      "name": "EmergencyWithdraw",
      "type": "event"
    },
    {
      "anonymous": false,
      "inputs": [
        {
          "indexed": true,
          "internalType": "address",
          "name": "previousOwner",
          "type": "address"
        },
        {
          "indexed": true,
          "internalType": "address",
          "name": "newOwner",
          "type": "address"
        }
      ],
      "name": "OwnershipTransferred",
      "type": "event"
    },
    {
      "anonymous": false,
      "inputs": [
        {
          "indexed": true,
          "internalType": "address",
          "name": "user",
          "type": "address"
        },
        {
          "indexed": true,
          "internalType": "uint256",
          "name": "pid",
          "type": "uint256"
        },
        {
          "indexed": false,
          "internalType": "uint256",
          "name": "amount",
          "type": "uint256"
        }
      ],
      "name": "Withdraw",
      "type": "event"
    },
    {
      "inputs": [
        {
          "internalType": "uint256",
          "name": "_allocPoint",
          "type": "uint256"
        },
        {
          "internalType": "contract IERC20",
          "name": "_lpToken",
          "type": "address"
        },
        {
          "internalType": "bool",
          "name": "_withUpdate",
          "type": "bool"
        }
      ],
      "name": "add",
      "outputs": [],
      "stateMutability": "nonpayable",
      "type": "function"
    },
    {
      "inputs": [
        {
          "internalType": "uint256",
          "name": "_pid",
          "type": "uint256"
        },
        {
          "internalType": "uint256",
          "name": "_amount",
          "type": "uint256"
        }
      ],
      "name": "deposit",
      "outputs": [],
      "stateMutability": "nonpayable",
      "type": "function"
    },
    {
      "inputs": [
        {
          "internalType": "address",
          "name": "_dev1addr",
          "type": "address"
        }
      ],
      "name": "dev1",
      "outputs": [],
      "stateMutability": "nonpayable",
      "type": "function"
    },
    {
      "inputs": [],
      "name": "dev1addr",
      "outputs": [
        {
          "internalType": "address",
          "name": "",
          "type": "address"
        }
      ],
      "stateMutability": "view",
      "type": "function"
    },
    {
      "inputs": [
        {
          "internalType": "address",
          "name": "_dev2addr",
          "type": "address"
        }
      ],
      "name": "dev2",
      "outputs": [],
      "stateMutability": "nonpayable",
      "type": "function"
    },
    {
      "inputs": [],
      "name": "dev2addr",
      "outputs": [
        {
          "internalType": "address",
          "name": "",
          "type": "address"
        }
      ],
      "stateMutability": "view",
      "type": "function"
    },
    {
      "inputs": [
        {
          "internalType": "uint256",
          "name": "_pid",
          "type": "uint256"
        }
      ],
      "name": "emergencyWithdraw",
      "outputs": [],
      "stateMutability": "nonpayable",
      "type": "function"
    },
    {
      "inputs": [
        {
          "internalType": "uint256",
          "name": "_from",
          "type": "uint256"
        },
        {
          "internalType": "uint256",
          "name": "_to",
          "type": "uint256"
        }
      ],
      "name": "getMultiplier",
      "outputs": [
        {
          "internalType": "uint256",
          "name": "",
          "type": "uint256"
        }
      ],
      "stateMutability": "pure",
      "type": "function"
    },
    {
      "inputs": [],
      "name": "massUpdatePools",
      "outputs": [],
      "stateMutability": "nonpayable",
      "type": "function"
    },
    {
      "inputs": [],
      "name": "owner",
      "outputs": [
        {
          "internalType": "address",
          "name": "",
          "type": "address"
        }
      ],
      "stateMutability": "view",
      "type": "function"
    },
    {
      "inputs": [
        {
          "internalType": "uint256",
          "name": "_pid",
          "type": "uint256"
        },
        {
          "internalType": "address",
          "name": "_user",
          "type": "address"
        }
      ],
      "name": "pendingPunch",
      "outputs": [
        {
          "internalType": "uint256",
          "name": "",
          "type": "uint256"
        }
      ],
      "stateMutability": "view",
      "type": "function"
    },
    {
      "inputs": [
        {
          "internalType": "uint256",
          "name": "",
          "type": "uint256"
        }
      ],
      "name": "poolInfo",
      "outputs": [
        {
          "internalType": "contract IERC20",
          "name": "lpToken",
          "type": "address"
        },
        {
          "internalType": "uint256",
          "name": "allocPoint",
          "type": "uint256"
        },
        {
          "internalType": "uint256",
          "name": "lastRewardBlock",
          "type": "uint256"
        },
        {
          "internalType": "uint256",
          "name": "accPunchPerShare",
          "type": "uint256"
        }
      ],
      "stateMutability": "view",
      "type": "function"
    },
    {
      "inputs": [],
      "name": "poolLength",
      "outputs": [
        {
          "internalType": "uint256",
          "name": "",
          "type": "uint256"
        }
      ],
      "stateMutability": "view",
      "type": "function"
    },
    {
      "inputs": [],
      "name": "punch",
      "outputs": [
        {
          "internalType": "contract Punch",
          "name": "",
          "type": "address"
        }
      ],
      "stateMutability": "view",
      "type": "function"
    },
    {
      "inputs": [],
      "name": "punchPerBlock",
      "outputs": [
        {
          "internalType": "uint256",
          "name": "",
          "type": "uint256"
        }
      ],
      "stateMutability": "view",
      "type": "function"
    },
    {
      "inputs": [],
      "name": "renounceOwnership",
      "outputs": [],
      "stateMutability": "nonpayable",
      "type": "function"
    },
    {
      "inputs": [
        {
          "internalType": "uint256",
          "name": "_pid",
          "type": "uint256"
        },
        {
          "internalType": "uint256",
          "name": "_allocPoint",
          "type": "uint256"
        },
        {
          "internalType": "bool",
          "name": "_withUpdate",
          "type": "bool"
        }
      ],
      "name": "set",
      "outputs": [],
      "stateMutability": "nonpayable",
      "type": "function"
    },
    {
      "inputs": [
        {
          "internalType": "uint256",
          "name": "_punchPerBlock",
          "type": "uint256"
        },
        {
          "internalType": "bool",
          "name": "_withUpdate",
          "type": "bool"
        }
      ],
      "name": "setPunchPerBlock",
      "outputs": [],
      "stateMutability": "nonpayable",
      "type": "function"
    },
    {
      "inputs": [],
      "name": "totalAllocPoint",
      "outputs": [
        {
          "internalType": "uint256",
          "name": "",
          "type": "uint256"
        }
      ],
      "stateMutability": "view",
      "type": "function"
    },
    {
      "inputs": [
        {
          "internalType": "address",
          "name": "newOwner",
          "type": "address"
        }
      ],
      "name": "transferOwnership",
      "outputs": [],
      "stateMutability": "nonpayable",
      "type": "function"
    },
    {
      "inputs": [
        {
          "internalType": "uint256",
          "name": "_pid",
          "type": "uint256"
        }
      ],
      "name": "updatePool",
      "outputs": [],
      "stateMutability": "nonpayable",
      "type": "function"
    },
    {
      "inputs": [
        {
          "internalType": "uint256",
          "name": "",
          "type": "uint256"
        },
        {
          "internalType": "address",
          "name": "",
          "type": "address"
        }
      ],
      "name": "userInfo",
      "outputs": [
        {
          "internalType": "uint256",
          "name": "amount",
          "type": "uint256"
        },
        {
          "internalType": "uint256",
          "name": "rewardDebt",
          "type": "uint256"
        }
      ],
      "stateMutability": "view",
      "type": "function"
    },
    {
      "inputs": [
        {
          "internalType": "uint256",
          "name": "_pid",
          "type": "uint256"
        },
        {
          "internalType": "uint256",
          "name": "_amount",
          "type": "uint256"
        }
      ],
      "name": "withdraw",
      "outputs": [],
      "stateMutability": "nonpayable",
      "type": "function"
    }
  ],
  "bytecode": "0x608060405260028054600160a060020a0319908116735960307abf9f267c589eec4038bc31d18f7d0d91179091556003805490911673adf189887c7af2fdf8b83abfc1e10c409675a9e617905560006007553480156200005e57600080fd5b5060405162001d2338038062001d23833981016040819052620000819162000125565b620000a762000098640100000000620000d1810204565b640100000000620000d5810204565b60018054600160a060020a031916600160a060020a03939093169290921790915560045562000161565b3390565b60008054600160a060020a03838116600160a060020a0319831681178455604051919092169283917f8be0079c531659141344cd1fd0a4f28419497f9722a3daafe3b4186f6b6457e09190a35050565b600080604083850312156200013957600080fd5b8251600160a060020a03811681146200015157600080fd5b6020939093015192949293505050565b611bb280620001716000396000f3fe608060405234801561001057600080fd5b50600436106101aa576000357c01000000000000000000000000000000000000000000000000000000009004806364482f791161010057806393f1a40b116100a9578063e2bbb15811610083578063e2bbb15814610385578063f2fde38b14610398578063f5f0ff8c146103ab57600080fd5b806393f1a40b14610318578063a82a3cd61461035f578063bf4ef9221461037257600080fd5b80637e85867f116100da5780637e85867f146102e15780638da5cb5b146102f45780638dbb1e3a1461030557600080fd5b806364482f791461029b578063682bb813146102ae578063715018a6146102d957600080fd5b80631eaaa0451161016257806351eb05a61161013c57806351eb05a61461026d5780635312ea8e14610280578063630b5ba11461029357600080fd5b80631eaaa04514610234578063441a3e70146102475780634b54555f1461025a57600080fd5b80631526fe27116101935780631526fe27146101d957806317caf6f114610216578063193df9641461021f57600080fd5b8063081e3eda146101af57806313e7064f146101c6575b600080fd5b6005545b6040519081526020015b60405180910390f35b6101b36101d43660046118d5565b6103b4565b6101ec6101e73660046118a3565b61054c565b60408051600160a060020a03909516855260208501939093529183015260608201526080016101bd565b6101b360075481565b61023261022d366004611905565b610590565b005b61023261024236600461192a565b61060b565b61023261025536600461196c565b610788565b610232610268366004611869565b6108f1565b61023261027b3660046118a3565b610982565b61023261028e3660046118a3565b610e26565b610232610ec8565b6102326102a936600461198e565b610ef3565b6001546102c190600160a060020a031681565b604051600160a060020a0390911681526020016101bd565b610232610fd4565b6003546102c190600160a060020a031681565b600054600160a060020a03166102c1565b6101b361031336600461196c565b611042565b61034a6103263660046118d5565b60066020908152600092835260408084209091529082529020805460019091015482565b604080519283526020830191909152016101bd565b6002546102c190600160a060020a031681565b610232610380366004611869565b611055565b61023261039336600461196c565b6110e6565b6102326103a6366004611869565b6111ff565b6101b360045481565b600080600584815481106103ca576103ca611b0a565b60009182526020808320878452600682526040808520600160a060020a038981168752935280852060049485029092016003810154815492517f70a08231000000000000000000000000000000000000000000000000000000008152309681019690965290965091949193919216906370a082319060240160206040518083038186803b15801561045a57600080fd5b505afa15801561046e573d6000803e3d6000fd5b505050506040513d601f19601f8201168201806040525081019061049291906118bc565b90508360020154431180156104a657508015155b156105145760006104bb856002015443611042565b905060006007548660010154600454846104d59190611a5e565b6104df9190611a5e565b6104e99190611a23565b9050826104fb8264e8d4a51000611a5e565b6105059190611a23565b61050f9085611a0b565b935050505b6001830154835464e8d4a510009061052d908590611a5e565b6105379190611a23565b6105419190611a7d565b979650505050505050565b6005818154811061055c57600080fd5b60009182526020909120600490910201805460018201546002830154600390930154600160a060020a039092169350919084565b600054600160a060020a031633146105f757604051600080516020611b5d833981519152815260206004820181905260248201527f4f776e61626c653a2063616c6c6572206973206e6f7420746865206f776e657260448201526064015b60405180910390fd5b801561060557610605610ec8565b50600455565b600054600160a060020a0316331461066d57604051600080516020611b5d833981519152815260206004820181905260248201527f4f776e61626c653a2063616c6c6572206973206e6f7420746865206f776e657260448201526064016105ee565b801561067b5761067b610ec8565b600754439061068b908590611a0b565b60075560408051608081018252600160a060020a0394851681526020810195865290810191825260006060820181815260058054600181018255925291517f036b6384b5eca791c62761152d0c79bb0604c104a5fb6f4eb0703f3154bb3db06004909202918201805473ffffffffffffffffffffffffffffffffffffffff1916919096161790945593517f036b6384b5eca791c62761152d0c79bb0604c104a5fb6f4eb0703f3154bb3db1840155517f036b6384b5eca791c62761152d0c79bb0604c104a5fb6f4eb0703f3154bb3db28301555090517f036b6384b5eca791c62761152d0c79bb0604c104a5fb6f4eb0703f3154bb3db390910155565b60006005838154811061079d5761079d611b0a565b60009182526020808320868452600682526040808520338652909252922080546004909202909201925083111561081e57604051600080516020611b5d833981519152815260206004820152601260248201527f77697468647261773a206e6f7420676f6f64000000000000000000000000000060448201526064016105ee565b61082784610982565b6000816001015464e8d4a51000846003015484600001546108489190611a5e565b6108529190611a23565b61085c9190611a7d565b905061086833826112f1565b8154610875908590611a7d565b808355600384015464e8d4a510009161088e9190611a5e565b6108989190611a23565b600183015582546108b390600160a060020a0316338661148d565b604051848152859033907ff279e6a1f5e320cca91135676d9cb6e44ca8a08c0b88342bcdb1144f6511b5689060200160405180910390a35050505050565b600354600160a060020a0316331461095357604051600080516020611b5d833981519152815260206004820152600960248201527f6465763a207775743f000000000000000000000000000000000000000000000060448201526064016105ee565b6003805473ffffffffffffffffffffffffffffffffffffffff1916600160a060020a0392909216919091179055565b60006005828154811061099757610997611b0a565b90600052602060002090600402019050806002015443116109b6575050565b6004546109c7574360029091015550565b80546040517f70a08231000000000000000000000000000000000000000000000000000000008152306004820152600091600160a060020a0316906370a082319060240160206040518083038186803b158015610a2357600080fd5b505afa158015610a37573d6000803e3d6000fd5b505050506040513d601f19601f82011682018060405250810190610a5b91906118bc565b905080610a6d57504360029091015550565b6000610a7d836002015443611042565b90506000600754846001015460045484610a979190611a5e565b610aa19190611a5e565b610aab9190611a23565b9050610ab8816002611a5e565b600154600160a060020a03166370a08231610adb600054600160a060020a031690565b6040517c010000000000000000000000000000000000000000000000000000000063ffffffff8416028152600160a060020a03909116600482015260240160206040518083038186803b158015610b3157600080fd5b505afa158015610b45573d6000803e3d6000fd5b505050506040513d601f19601f82011682018060405250810190610b6991906118bc565b1015610b755760006004555b600154600160a060020a03166323b872dd610b98600054600160a060020a031690565b600254600160a060020a0316610baf600786611a23565b6040517c010000000000000000000000000000000000000000000000000000000063ffffffff8616028152600160a060020a0393841660048201529290911660248301526044820152606401602060405180830381600087803b158015610c1557600080fd5b505af1158015610c29573d6000803e3d6000fd5b505050506040513d601f19601f82011682018060405250810190610c4d9190611886565b50600154600160a060020a03166323b872dd610c71600054600160a060020a031690565b600354600160a060020a0316610c88601c86611a23565b6040517c010000000000000000000000000000000000000000000000000000000063ffffffff8616028152600160a060020a0393841660048201529290911660248301526044820152606401602060405180830381600087803b158015610cee57600080fd5b505af1158015610d02573d6000803e3d6000fd5b505050506040513d601f19601f82011682018060405250810190610d269190611886565b50600154600160a060020a03166323b872dd610d4a600054600160a060020a031690565b6040517c010000000000000000000000000000000000000000000000000000000063ffffffff8416028152600160a060020a03909116600482015230602482015260448101849052606401602060405180830381600087803b158015610daf57600080fd5b505af1158015610dc3573d6000803e3d6000fd5b505050506040513d601f19601f82011682018060405250810190610de79190611886565b5082610df88264e8d4a51000611a5e565b610e029190611a23565b8460030154610e119190611a0b565b60038501555050436002909201919091555050565b600060058281548110610e3b57610e3b611b0a565b60009182526020808320858452600682526040808520338087529352909320805460049093029093018054909450610e8092600160a060020a0391909116919061148d565b8054604051908152839033907fbb757047c2b5f3974fe26b7c10f732e7bce710b0952a71082702781e62ae05959060200160405180910390a360008082556001909101555050565b60055460005b81811015610eef57610edf81610982565b610ee881611ac0565b9050610ece565b5050565b600054600160a060020a03163314610f5557604051600080516020611b5d833981519152815260206004820181905260248201527f4f776e61626c653a2063616c6c6572206973206e6f7420746865206f776e657260448201526064016105ee565b8015610f6357610f63610ec8565b8160058481548110610f7757610f77611b0a565b906000526020600020906004020160010154600754610f969190611a7d565b610fa09190611a0b565b6007819055508160058481548110610fba57610fba611b0a565b906000526020600020906004020160010181905550505050565b600054600160a060020a0316331461103657604051600080516020611b5d833981519152815260206004820181905260248201527f4f776e61626c653a2063616c6c6572206973206e6f7420746865206f776e657260448201526064016105ee565b6110406000611536565b565b600061104e8383611a7d565b9392505050565b600254600160a060020a031633146110b757604051600080516020611b5d833981519152815260206004820152600960248201527f6465763a207775743f000000000000000000000000000000000000000000000060448201526064016105ee565b6002805473ffffffffffffffffffffffffffffffffffffffff1916600160a060020a0392909216919091179055565b6000600583815481106110fb576110fb611b0a565b6000918252602080832086845260068252604080852033865290925292206004909102909101915061112c84610982565b805415611176576000816001015464e8d4a51000846003015484600001546111549190611a5e565b61115e9190611a23565b6111689190611a7d565b905061117433826112f1565b505b815461118d90600160a060020a0316333086611593565b805461119a908490611a0b565b808255600383015464e8d4a51000916111b39190611a5e565b6111bd9190611a23565b6001820155604051838152849033907f90890809c654f11d6e72a28fa60149770a0d11ec6c92319d6ceb2bb0a4ea1a159060200160405180910390a350505050565b600054600160a060020a0316331461126157604051600080516020611b5d833981519152815260206004820181905260248201527f4f776e61626c653a2063616c6c6572206973206e6f7420746865206f776e657260448201526064016105ee565b600160a060020a0381166112e557604051600080516020611b5d833981519152815260206004820152602660248201527f4f776e61626c653a206e6577206f776e657220697320746865207a65726f206160448201527f646472657373000000000000000000000000000000000000000000000000000060648201526084016105ee565b6112ee81611536565b50565b6001546040517f70a08231000000000000000000000000000000000000000000000000000000008152306004820152600091600160a060020a0316906370a082319060240160206040518083038186803b15801561134e57600080fd5b505afa158015611362573d6000803e3d6000fd5b505050506040513d601f19601f8201168201806040525081019061138691906118bc565b905080821115611436576001546040517fa9059cbb000000000000000000000000000000000000000000000000000000008152600160a060020a038581166004830152602482018490529091169063a9059cbb906044015b602060405180830381600087803b1580156113f857600080fd5b505af115801561140c573d6000803e3d6000fd5b505050506040513d601f19601f820116820180604052508101906114309190611886565b50505050565b6001546040517fa9059cbb000000000000000000000000000000000000000000000000000000008152600160a060020a038581166004830152602482018590529091169063a9059cbb906044016113de565b505050565b604051600160a060020a0383166024820152604481018290526114889084907fa9059cbb00000000000000000000000000000000000000000000000000000000906064015b60408051601f198184030181529190526020810180517bffffffffffffffffffffffffffffffffffffffffffffffffffffffff167fffffffff00000000000000000000000000000000000000000000000000000000909316929092179091526115e4565b60008054600160a060020a0383811673ffffffffffffffffffffffffffffffffffffffff19831681178455604051919092169283917f8be0079c531659141344cd1fd0a4f28419497f9722a3daafe3b4186f6b6457e09190a35050565b604051600160a060020a03808516602483015283166044820152606481018290526114309085907f23b872dd00000000000000000000000000000000000000000000000000000000906084016114d2565b6000611639826040518060400160405280602081526020017f5361666545524332303a206c6f772d6c6576656c2063616c6c206661696c656481525085600160a060020a03166116d19092919063ffffffff16565b80519091501561148857808060200190518101906116579190611886565b61148857604051600080516020611b5d833981519152815260206004820152602a60248201527f5361666545524332303a204552433230206f7065726174696f6e20646964206e60448201527f6f7420737563636565640000000000000000000000000000000000000000000060648201526084016105ee565b60606116e084846000856116e8565b949350505050565b6060303183111561176957604051600080516020611b5d833981519152815260206004820152602660248201527f416464726573733a20696e73756666696369656e742062616c616e636520666f60448201527f722063616c6c000000000000000000000000000000000000000000000000000060648201526084016105ee565b843b6117bf57604051600080516020611b5d833981519152815260206004820152601d60248201527f416464726573733a2063616c6c20746f206e6f6e2d636f6e747261637400000060448201526064016105ee565b60008086600160a060020a031685876040516117db91906119bc565b60006040518083038185875af1925050503d8060008114611818576040519150601f19603f3d011682016040523d82523d6000602084013e61181d565b606091505b50915091506105418282866060831561183757508161104e565b8251156118475782518084602001fd5b81604051600080516020611b5d83398151915281526004016105ee91906119d8565b60006020828403121561187b57600080fd5b813561104e81611b39565b60006020828403121561189857600080fd5b815161104e81611b4e565b6000602082840312156118b557600080fd5b5035919050565b6000602082840312156118ce57600080fd5b5051919050565b600080604083850312156118e857600080fd5b8235915060208301356118fa81611b39565b809150509250929050565b6000806040838503121561191857600080fd5b8235915060208301356118fa81611b4e565b60008060006060848603121561193f57600080fd5b83359250602084013561195181611b39565b9150604084013561196181611b4e565b809150509250925092565b6000806040838503121561197f57600080fd5b50508035926020909101359150565b6000806000606084860312156119a357600080fd5b8335925060208401359150604084013561196181611b4e565b600082516119ce818460208701611a94565b9190910192915050565b60208152600082518060208401526119f7816040850160208701611a94565b601f01601f19169190910160400192915050565b60008219821115611a1e57611a1e611adb565b500190565b600082611a59577f4e487b7100000000000000000000000000000000000000000000000000000000600052601260045260246000fd5b500490565b6000816000190483118215151615611a7857611a78611adb565b500290565b600082821015611a8f57611a8f611adb565b500390565b60005b83811015611aaf578181015183820152602001611a97565b838111156114305750506000910152565b6000600019821415611ad457611ad4611adb565b5060010190565b7f4e487b7100000000000000000000000000000000000000000000000000000000600052601160045260246000fd5b7f4e487b7100000000000000000000000000000000000000000000000000000000600052603260045260246000fd5b600160a060020a03811681146112ee57600080fd5b80151581146112ee57600080fdfe08c379a000000000000000000000000000000000000000000000000000000000a2646970667358221220832b7e18e9024dcc2761c9498c4cd496e34620868d6652ac2a9beead82898d8664736f6c63430008060033",
  "linkReferences": {},
  "deployedLinkReferences": {}
}