{
  "contractName": "PunchFarm",
  "abi": [
    {
      "inputs": [
        {
          "internalType": "contract Tkn",
          "name": "_token",
          "type": "address"
        }
      ],
      "stateMutability": "nonpayable",
      "type": "constructor"
    },
    {
      "anonymous": false,
      "inputs": [
        {
          "indexed": true,
          "internalType": "address",
          "name": "previousOwner",
          "type": "address"
        },
        {
          "indexed": true,
          "internalType": "address",
          "name": "newOwner",
          "type": "address"
        }
      ],
      "name": "OwnershipTransferred",
      "type": "event"
    },
    {
      "anonymous": false,
      "inputs": [
        {
          "indexed": false,
          "internalType": "address",
          "name": "account",
          "type": "address"
        }
      ],
      "name": "Paused",
      "type": "event"
    },
    {
      "anonymous": false,
      "inputs": [
        {
          "indexed": true,
          "internalType": "address",
          "name": "staker",
          "type": "address"
        },
        {
          "indexed": false,
          "internalType": "uint256",
          "name": "amount",
          "type": "uint256"
        }
      ],
      "name": "StakedTokens",
      "type": "event"
    },
    {
      "anonymous": false,
      "inputs": [
        {
          "indexed": false,
          "internalType": "uint256",
          "name": "timestamp",
          "type": "uint256"
        }
      ],
      "name": "StakingPaused",
      "type": "event"
    },
    {
      "anonymous": false,
      "inputs": [
        {
          "indexed": false,
          "internalType": "uint256",
          "name": "timestamp",
          "type": "uint256"
        }
      ],
      "name": "StakingUnpaused",
      "type": "event"
    },
    {
      "anonymous": false,
      "inputs": [
        {
          "indexed": false,
          "internalType": "address",
          "name": "account",
          "type": "address"
        }
      ],
      "name": "Unpaused",
      "type": "event"
    },
    {
      "anonymous": false,
      "inputs": [
        {
          "indexed": true,
          "internalType": "address",
          "name": "staker",
          "type": "address"
        },
        {
          "indexed": false,
          "internalType": "uint256",
          "name": "amount",
          "type": "uint256"
        }
      ],
      "name": "UnstakedTokens",
      "type": "event"
    },
    {
      "inputs": [],
      "name": "Token",
      "outputs": [
        {
          "internalType": "contract Tkn",
          "name": "",
          "type": "address"
        }
      ],
      "stateMutability": "view",
      "type": "function"
    },
    {
      "inputs": [
        {
          "internalType": "address",
          "name": "",
          "type": "address"
        }
      ],
      "name": "isStaking",
      "outputs": [
        {
          "internalType": "bool",
          "name": "",
          "type": "bool"
        }
      ],
      "stateMutability": "view",
      "type": "function"
    },
    {
      "inputs": [],
      "name": "owner",
      "outputs": [
        {
          "internalType": "address",
          "name": "",
          "type": "address"
        }
      ],
      "stateMutability": "view",
      "type": "function"
    },
    {
      "inputs": [],
      "name": "paused",
      "outputs": [
        {
          "internalType": "bool",
          "name": "",
          "type": "bool"
        }
      ],
      "stateMutability": "view",
      "type": "function"
    },
    {
      "inputs": [],
      "name": "renounceOwnership",
      "outputs": [],
      "stateMutability": "nonpayable",
      "type": "function"
    },
    {
      "inputs": [
        {
          "internalType": "address",
          "name": "",
          "type": "address"
        }
      ],
      "name": "stakerIdx",
      "outputs": [
        {
          "internalType": "uint256",
          "name": "",
          "type": "uint256"
        }
      ],
      "stateMutability": "view",
      "type": "function"
    },
    {
      "inputs": [
        {
          "internalType": "uint256",
          "name": "",
          "type": "uint256"
        }
      ],
      "name": "stakers",
      "outputs": [
        {
          "internalType": "address",
          "name": "",
          "type": "address"
        }
      ],
      "stateMutability": "view",
      "type": "function"
    },
    {
      "inputs": [
        {
          "internalType": "address",
          "name": "",
          "type": "address"
        }
      ],
      "name": "stakingBalance",
      "outputs": [
        {
          "internalType": "uint256",
          "name": "",
          "type": "uint256"
        }
      ],
      "stateMutability": "view",
      "type": "function"
    },
    {
      "inputs": [
        {
          "internalType": "address",
          "name": "newOwner",
          "type": "address"
        }
      ],
      "name": "transferOwnership",
      "outputs": [],
      "stateMutability": "nonpayable",
      "type": "function"
    },
    {
      "stateMutability": "payable",
      "type": "receive"
    },
    {
      "inputs": [
        {
          "internalType": "uint256",
          "name": "_amount",
          "type": "uint256"
        }
      ],
      "name": "stakeTokens",
      "outputs": [],
      "stateMutability": "nonpayable",
      "type": "function"
    },
    {
      "inputs": [],
      "name": "unstakeTokens",
      "outputs": [],
      "stateMutability": "nonpayable",
      "type": "function"
    },
    {
      "inputs": [],
      "name": "getStakers",
      "outputs": [
        {
          "internalType": "address[]",
          "name": "",
          "type": "address[]"
        }
      ],
      "stateMutability": "view",
      "type": "function"
    },
    {
      "inputs": [],
      "name": "getStakersLength",
      "outputs": [
        {
          "internalType": "uint256",
          "name": "",
          "type": "uint256"
        }
      ],
      "stateMutability": "view",
      "type": "function"
    },
    {
      "inputs": [],
      "name": "getStakersBalance",
      "outputs": [
        {
          "components": [
            {
              "internalType": "address",
              "name": "staker",
              "type": "address"
            },
            {
              "internalType": "uint256",
              "name": "balance",
              "type": "uint256"
            }
          ],
          "internalType": "struct PunchFarm.StakerBalance[]",
          "name": "",
          "type": "tuple[]"
        }
      ],
      "stateMutability": "view",
      "type": "function"
    },
    {
      "inputs": [
        {
          "internalType": "address",
          "name": "tokenAddress",
          "type": "address"
        },
        {
          "internalType": "uint256",
          "name": "tokens",
          "type": "uint256"
        }
      ],
      "name": "transferAnyERC20Token",
      "outputs": [
        {
          "internalType": "bool",
          "name": "success",
          "type": "bool"
        }
      ],
      "stateMutability": "nonpayable",
      "type": "function"
    },
    {
      "inputs": [],
      "name": "stakingPause",
      "outputs": [],
      "stateMutability": "nonpayable",
      "type": "function"
    },
    {
      "inputs": [],
      "name": "stakingUnpause",
      "outputs": [],
      "stateMutability": "nonpayable",
      "type": "function"
    }
  ],
  "bytecode": "0x608060405234801561001057600080fd5b5060405161126238038061126283398101604081905261002f916100c9565b60006100426401000000006100c5810204565b60008054600160a060020a031916600160a060020a0383169081178255604051929350917f8be0079c531659141344cd1fd0a4f28419497f9722a3daafe3b4186f6b6457e0908290a3506000805460018054600160a060020a031916600160a060020a03949094169390931790925560a060020a61ffff021990911690556100f7565b3390565b6000602082840312156100da578081fd5b8151600160a060020a03811681146100f0578182fd5b9392505050565b61115c806101066000396000f3fe60806040526004361061011f576000357c0100000000000000000000000000000000000000000000000000000000900480638da5cb5b116100b2578063c241267611610081578063c2412676146102ef578063dc39d06d1461030f578063f2fde38b1461032f578063f72581d51461034f578063fd5e6dd11461037157610129565b80638da5cb5b146102665780639fabeb0014610298578063a0c12683146102ad578063a5ce413b146102da57610129565b80635c975abb116100ee5780635c975abb146101c05780636f49712b14610201578063715018a6146102315780637547c7a31461024657610129565b806343352d611461012e57806345bc78ab14610159578063532a92951461019457806355455df2146101ab57610129565b3661012957600080fd5b600080fd5b34801561013a57600080fd5b50610143610391565b6040516101509190610fe9565b60405180910390f35b34801561016557600080fd5b50610186610174366004610f6e565b60036020526000908152604090205481565b604051908152602001610150565b3480156101a057600080fd5b506101a96103f3565b005b3480156101b757600080fd5b506101a961047e565b3480156101cc57600080fd5b506101f160005474010000000000000000000000000000000000000000900460ff1690565b6040519015158152602001610150565b34801561020d57600080fd5b506101f161021c366004610f6e565b60046020526000908152604090205460ff1681565b34801561023d57600080fd5b506101a9610514565b34801561025257600080fd5b506101a9610261366004610fd1565b610598565b34801561027257600080fd5b50600054600160a060020a03165b604051600160a060020a039091168152602001610150565b3480156102a457600080fd5b50600254610186565b3480156102b957600080fd5b506101866102c8366004610f6e565b60056020526000908152604090205481565b3480156102e657600080fd5b506101a961086d565b3480156102fb57600080fd5b5060015461028090600160a060020a031681565b34801561031b57600080fd5b506101f161032a366004610f88565b610a46565b34801561033b57600080fd5b506101a961034a366004610f6e565b610b33565b34801561035b57600080fd5b50610364610c47565b6040516101509190611036565b34801561037d57600080fd5b5061028061038c366004610fd1565b610dc1565b606060028054806020026020016040519081016040528092919081815260200182805480156103e957602002820191906000526020600020905b8154600160a060020a031681526001909101906020018083116103cb575b5050505050905090565b600054600160a060020a031633146104295760405160e560020a62461bcd0281526004016104209061108e565b60405180910390fd5b6000805475ff000000000000000000000000000000000000000000191690556040514281527f5366906f66ae3baf87bc186d2d944614851e3f99ad0936d1646efe8da4911e25906020015b60405180910390a1565b600054600160a060020a031633146104ab5760405160e560020a62461bcd0281526004016104209061108e565b6000805475ff000000000000000000000000000000000000000000191675010000000000000000000000000000000000000000001790556040517f0360db892e3dac8f90132b170a358d55724fff3ac936ab6791dccd7572240bf9906104749042815260200190565b600054600160a060020a031633146105415760405160e560020a62461bcd0281526004016104209061108e565b60008054604051600160a060020a03909116907f8be0079c531659141344cd1fd0a4f28419497f9722a3daafe3b4186f6b6457e0908390a36000805473ffffffffffffffffffffffffffffffffffffffff19169055565b6105bc60005474010000000000000000000000000000000000000000900460ff1690565b1561060c5760405160e560020a62461bcd02815260206004820152601060248201527f5061757361626c653a20706175736564000000000000000000000000000000006044820152606401610420565b6000547501000000000000000000000000000000000000000000900460ff161561067b5760405160e560020a62461bcd02815260206004820181905260248201527f5374616b696e67205061757361626c653a207374616b696e67207061757365646044820152606401610420565b600081116106ce5760405160e560020a62461bcd02815260206004820152601260248201527f616d6f756e742063616e6e6f74206265203000000000000000000000000000006044820152606401610420565b6001546040517f23b872dd00000000000000000000000000000000000000000000000000000000815233600482015230602482015260448101839052600160a060020a03909116906323b872dd90606401602060405180830381600087803b15801561073957600080fd5b505af115801561074d573d6000803e3d6000fd5b505050506040513d601f19601f820116820180604052508101906107719190610fb1565b503360009081526003602052604090205461078d9082906110c3565b3360009081526003602090815260408083209390935560049052205460ff1661083457600280546001818101835560008390527f405787fa12a823e0f2b7631cc41b3ba8828b3321ca811111fa75cd3aa3bb5ace909101805473ffffffffffffffffffffffffffffffffffffffff191633179055905461080d91906110db565b336000908152600560209081526040808320939093556004905220805460ff191660011790555b60405181815233907f07ebe4cc0edd899e6e61889dcebbcaeb1e6ae4e97d01019119e07184016bd076906020015b60405180910390a250565b61089160005474010000000000000000000000000000000000000000900460ff1690565b156108e15760405160e560020a62461bcd02815260206004820152601060248201527f5061757361626c653a20706175736564000000000000000000000000000000006044820152606401610420565b33600090815260036020526040902054806109415760405160e560020a62461bcd02815260206004820152601b60248201527f7374616b696e672062616c616e63652063616e6e6f74206265203000000000006044820152606401610420565b6001546040517fa9059cbb00000000000000000000000000000000000000000000000000000000815233600482015260248101839052600160a060020a039091169063a9059cbb90604401602060405180830381600087803b1580156109a657600080fd5b505af11580156109ba573d6000803e3d6000fd5b505050506040513d601f19601f820116820180604052508101906109de9190610fb1565b5033600090815260036020908152604080832083905560048252808320805460ff191690556005909152902054610a1490610deb565b60405181815233907f567e223e05416c2ccea5a51206c91b710156cbada399c65850e563909d21856790602001610862565b60008054600160a060020a03163314610a745760405160e560020a62461bcd0281526004016104209061108e565b82600160a060020a031663a9059cbb610a95600054600160a060020a031690565b6040517c010000000000000000000000000000000000000000000000000000000063ffffffff8416028152600160a060020a03909116600482015260248101859052604401602060405180830381600087803b158015610af457600080fd5b505af1158015610b08573d6000803e3d6000fd5b505050506040513d601f19601f82011682018060405250810190610b2c9190610fb1565b9392505050565b600054600160a060020a03163314610b605760405160e560020a62461bcd0281526004016104209061108e565b600160a060020a038116610bdf5760405160e560020a62461bcd02815260206004820152602660248201527f4f776e61626c653a206e6577206f776e657220697320746865207a65726f206160448201527f64647265737300000000000000000000000000000000000000000000000000006064820152608401610420565b60008054604051600160a060020a03808516939216917f8be0079c531659141344cd1fd0a4f28419497f9722a3daafe3b4186f6b6457e091a36000805473ffffffffffffffffffffffffffffffffffffffff1916600160a060020a0392909216919091179055565b60025460609060009067ffffffffffffffff811115610c795760e060020a634e487b7102600052604160045260246000fd5b604051908082528060200260200182016040528015610cbe57816020015b6040805180820190915260008082526020820152815260200190600190039081610c975790505b50905060005b600254811015610dbb57604051806040016040528060028381548110610cfd5760e060020a634e487b7102600052603260045260246000fd5b9060005260206000200160009054906101000a9004600160a060020a0316600160a060020a031681526020016003600060028581548110610d515760e060020a634e487b7102600052603260045260246000fd5b6000918252602080832090910154600160a060020a0316835282019290925260400190205490528251839083908110610d9d5760e060020a634e487b7102600052603260045260246000fd5b60200260200101819052508080610db3906110f2565b915050610cc4565b50905090565b60028181548110610dd157600080fd5b600091825260209091200154600160a060020a0316905081565b60025460011180610e095750600254610e06906001906110db565b81115b15610e1357610f4f565b60028054610e23906001906110db565b81548110610e445760e060020a634e487b7102600052603260045260246000fd5b60009182526020909120015460028054600160a060020a039092169183908110610e815760e060020a634e487b7102600052603260045260246000fd5b9060005260206000200160006101000a815481600160a060020a030219169083600160a060020a03160217905550806005600060028481548110610ed85760e060020a634e487b7102600052603260045260246000fd5b6000918252602080832090910154600160a060020a031683528201929092526040019020556002805480610f1f5760e060020a634e487b7102600052603160045260246000fd5b6000828152602090208101600019908101805473ffffffffffffffffffffffffffffffffffffffff191690550190555b50565b8035600160a060020a0381168114610f6957600080fd5b919050565b600060208284031215610f7f578081fd5b610b2c82610f52565b60008060408385031215610f9a578081fd5b610fa383610f52565b946020939093013593505050565b600060208284031215610fc2578081fd5b81518015158114610b2c578182fd5b600060208284031215610fe2578081fd5b5035919050565b6020808252825182820181905260009190848201906040850190845b8181101561102a578351600160a060020a031683529284019291840191600101611005565b50909695505050505050565b602080825282518282018190526000919060409081850190868401855b828110156110815781518051600160a060020a03168552860151868501529284019290850190600101611053565b5091979650505050505050565b6020808252818101527f4f776e61626c653a2063616c6c6572206973206e6f7420746865206f776e6572604082015260600190565b600082198211156110d6576110d661110d565b500190565b6000828210156110ed576110ed61110d565b500390565b60006000198214156111065761110661110d565b5060010190565b60e060020a634e487b7102600052601160045260246000fdfea2646970667358221220263cacd970d2f7d9ce12dfb2f802758a1e524cc375e76adc88ecf1f961a304ef64736f6c63430008030033",
  "immutableReferences": {},
  "source": "// SPDX-License-Identifier: Copyright\npragma solidity ^0.8.0;\n\nimport '@openzeppelin/contracts/access/Ownable.sol';\nimport '@openzeppelin/contracts/security/Pausable.sol';\nimport '@openzeppelin/contracts/token/ERC20/IERC20.sol';\n\nimport \"./Token.sol\";\n\ncontract PunchFarm is Ownable, Pausable {\n\n  event StakingPaused(uint timestamp);\n  event StakingUnpaused(uint timestamp);\n\n  event StakedTokens(address indexed staker, uint256 amount);\n  event UnstakedTokens(address indexed staker, uint256 amount);\n\n  bool stakingPaused;\n\n  Tkn public Token;\n\n  address[] public stakers;\n  mapping(address => uint) public stakingBalance;\n  mapping(address => bool) public isStaking;\n  mapping(address => uint) public stakerIdx;\n\n  struct StakerBalance {\n    address staker;\n    uint balance;\n  }\n\n  constructor(Tkn _token) {\n    Token = _token;\n    stakingPaused = false;\n  }\n\n  function stakeTokens(uint _amount) public whenNotPaused whenStakingNotPaused {\n    // Require amount greater than 0\n    require(_amount > 0, \"amount cannot be 0\");\n\n    // Transfer Mock  tokens to this contract for staking\n    Token.transferFrom(msg.sender, address(this), _amount);\n\n    // Update staking balance\n    stakingBalance[msg.sender] = stakingBalance[msg.sender] + _amount;\n\n    // Add user to stakers array *only* if they haven't staked already\n    if(!isStaking[msg.sender]) {\n      stakers.push(msg.sender);\n      stakerIdx[msg.sender] = stakers.length - 1;\n      isStaking[msg.sender] = true;\n    }\n\n    emit StakedTokens(msg.sender, _amount);\n  }\n\n  // Deleting an element creates a gap in the array.\n  // One trick to keep the array compact is to\n  // move the last element into the place to delete.\n  function removeStaker(uint index) internal {\n    if(stakers.length < 1 || index > stakers.length -1) {\n      return;\n    }\n\n    // Move the last element into the place to delete\n    stakers[index] = stakers[stakers.length - 1];\n\n    // update the index\n    stakerIdx[stakers[index]] = index;\n\n    // Remove the last element\n    stakers.pop();\n  }\n\n  // Unstaking Tokens (Withdraw)\n  function unstakeTokens() public whenNotPaused {\n    // Fetch staking balance\n    uint balance = stakingBalance[msg.sender];\n\n    // Require amount greater than 0\n    require(balance > 0, \"staking balance cannot be 0\");\n\n    // Transfer deposited Mock  tokens from this contract to the caller of this method for unstaking\n    Token.transfer(msg.sender, balance);\n\n    // Reset staking balance\n    stakingBalance[msg.sender] = 0;\n\n    // Update staking status\n    isStaking[msg.sender] = false;\n    removeStaker(stakerIdx[msg.sender]);\n\n    emit UnstakedTokens(msg.sender, balance);\n  }\n\n  function getStakers() public view returns(address[] memory) {\n    return stakers;\n  }\n\n  function getStakersLength() public view returns(uint) {\n    return stakers.length;\n  }\n\n  function getStakersBalance() public view returns(StakerBalance[] memory) {\n    StakerBalance[] memory stakersBalance = new StakerBalance[](stakers.length);\n\n    for(uint i = 0; i < stakers.length; i++) {\n    stakersBalance[i] = StakerBalance({\n      staker: stakers[i],\n      balance: stakingBalance[stakers[i]]\n    });\n    }\n\n    return stakersBalance;\n  }\n\n  // ------------------------------------------------------------------------\n  // Don't accept ETH\n  // ------------------------------------------------------------------------\n  receive() external payable {\n    revert();\n  }\n\n\n  // ------------------------------------------------------------------------\n  // Owner can transfer out any accidentally sent ERC20 tokens\n  // ------------------------------------------------------------------------\n  function transferAnyERC20Token(address tokenAddress, uint tokens) public onlyOwner returns (bool success) {\n    return IERC20(tokenAddress).transfer(owner(), tokens);\n  }\n\n  function stakingPause() public onlyOwner {\n    stakingPaused = true;\n    emit StakingPaused(block.timestamp);\n  }\n\n  function stakingUnpause() public onlyOwner {\n    stakingPaused = false;\n    emit StakingUnpaused(block.timestamp);\n  }\n\n  modifier whenStakingNotPaused() {\n    require(!stakingPaused, \"Staking Pausable: staking paused\");\n    _;\n  }\n}\n",
  "sourcePath": "/home/user/code/foxreymann/defi-demo/src/contracts/PunchFarm.sol",
  "compiler": {
    "name": "solc",
    "version": "0.8.3+commit.8d00100c.Emscripten.clang"
  },
  "schemaVersion": "3.2.4",
  "updatedAt": "2021-04-28T20:53:29.126Z",
  "devdoc": {
    "kind": "dev",
    "methods": {
      "owner()": {
        "details": "Returns the address of the current owner."
      },
      "paused()": {
        "details": "Returns true if the contract is paused, and false otherwise."
      },
      "renounceOwnership()": {
        "details": "Leaves the contract without owner. It will not be possible to call `onlyOwner` functions anymore. Can only be called by the current owner. NOTE: Renouncing ownership will leave the contract without an owner, thereby removing any functionality that is only available to the owner."
      },
      "transferOwnership(address)": {
        "details": "Transfers ownership of the contract to a new account (`newOwner`). Can only be called by the current owner."
      }
    },
    "version": 1
  },
  "userdoc": {
    "kind": "user",
    "methods": {},
    "version": 1
  }
}